:100000000C94AD130C9484270C94B1270C94D51345
:100010000C94D5130C94D5130C94D5130C94951DF6
:100020000C94D5130C94D5130C94D5130C94D513B0
:100030000C94D5130C94D5130C94D5130C94D513A0
:100040000C94DE270C94D5130C94D1290C94182A07
:100050000C94D5130C94461A0C94D5130C94D51308
:100060000C94D5130C94D513000000000000000080
:10007000000000005A001E00000000000000000008
:1000800000005A000000000000001E000000001EDA
:100090005A00001E0000001E0000000000005A0070
:1000A000000000000000001E00001E005A000000BA
:1000B0001E001E000000000000005A0000000000AA
:1000C000000000001E1E00005A000000001E00007C
:1000D0000000000000005A000000000000000000C6
:1000E0001E1E00005A0000001E001E00000000003E
:1000F00000005A00000000000000001E00001E006A
:100100005A00001E0000001E0000000000005A00FF
:100110000000000000001E000000001E5A001E002B
:10012000000000000000000000005A000000000075
:1001300000000000000000005A0000000000000065
:100140000000000000005A00001E00000000001E19
:10015000000000005A00000000001E000000000027
:100160001E005A000000001E00000000001E0000DB
:100170005A001E00000000001E00000000005A008F
:1001800000000000001E00000000001E5A000000D9
:100190001E00000000001E0000005A0000000000C9
:1001A0001E00000000001E005A00001E000000009B
:1001B000001E000000005A000000001E00000000A9
:1001C000001E00005A0000000000001E0000000099
:1001D000001E5A0000001E00000000001E0000006B
:1001E0005A001E00000000001E00000000005A001F
:1001F0000000000000000000000000005A000000A5
:10020000000000000000000000005A00001E000076
:1002100000000000000000005A0000000000000084
:100220000000001E00005A00000000000000000056
:100230001E0000005A0000000000001E0000000028
:1002400000005A000000001E000000000000000036
:100250005A00000000000000000000001E005A00CC
:10026000000000000000001E000000005A001E00F8
:10027000000000000000000000005A000000000024
:100280001E000000000000005A00000000000000F6
:1002900000000000001E5A0000001E0000000000C8
:1002A000000000005A000000000000001E000000D6
:1002B00000005A00000000000000000000000000E4
:1002C0005A000000000000000000000000005A007A
:1002D00000000000001E00000000001E5A00000088
:1002E00000001E00000000001E005A000000001E5A
:1002F00000000000001E00005A0000001E00000068
:1003000000001E0000005A00001E00000000001E39
:10031000000000005A001E00000000001E00000047
:1003200000005A0000000000001E00000000001E37
:100330005A00000000001E00000000001E005A00CD
:100340000000001E00000000001E00005A00000017
:100350001E00000000001E0000005A00001E0000E9
:100360000000001E000000005A001E0000000000F7
:100370001E00000000005A00000000000000000005
:10038000000000005A000000000000000000000013
:1003900000005A001E0000000000000000000000E5
:1003A0005A000000001E00000000000000005A007B
:1003B0000000000000001E00000000005A000000C5
:1003C000000000000000001E00005A00001E000097
:1003D00000000000000000005A00000000001E00A5
:1003E0000000000000005A00000000000000001E95
:1003F000000000005A0000000000000000000000A3
:100400001E005A0000001E00000000000000000056
:100410005A0000000000001E0000000000005A000A
:1004200000000000000000001E0000005A00000054
:100430000000000000000000001E5A000000001E26
:1004400000000000000000005A001E000000000034
:100450000000000000005A00000000000000000042
:10046000000000005A000000000000000000000032
:1004700000005A001E000000001E000000000000E6
:100480005A00000000000000000000001E1E5A007C
:10049000000000001E1E0000000000005A000000C6
:1004A000000000000000001E1E005A000000001E98
:1004B0001E000000000000005A00000000000000C4
:1004C00000001E1E00005A0000001E1E000000005A
:1004D000000000005A00000000000000001E1E0086
:1004E00000005A00001E1E00000000000000000076
:1004F0005A000000000000001E1E000000005A000C
:100500001E1E000000000000000000005A00000055
:10051000000000001E000000001E5A000000000045
:1005200000000000000000005A0000000000000071
:100530000000000000005A001E00000000001E0025
:100540000000001E5A000000001E000000001E1ED9
:1005500000005A001E00000000001E000000001EE7
:100560005A000000001E000000001E1E00005A007D
:100570001E00000000001E000000001E5A000000C7
:10058000001E000000001E1E00005A0000000000B7
:100590001E1E000000001E005A00001E1E0000006B
:1005A000001E000000005A00000000001E1E000097
:1005B00000001E005A00001E1E000000001E000069
:1005C00000005A00000000001E1E000000001E0077
:1005D0005A00001E1E000000001E000000005A000D
:1005E0000000000000000000000000005A000000B1
:1005F000000000000000000000005A001E00000083
:1006000000000000000000005A001E000000000072
:1006100000000000001E5A0000000000001E000044
:100620000000001E5A0000000000001E0000000034
:100630001E005A00000000001E00000000001E0006
:100640005A00000000001E000000001E00005A00BA
:100650000000001E00000000001E00005A00000004
:10066000001E000000001E0000005A0000001E00D6
:10067000000000001E0000005A0000001E000000E4
:10068000001E000000005A00001E00000000001EB6
:10069000000000005A00001E000000001E000000C4
:1006A00000005A001E00000000001E0000000000B4
:1006B0005A001E00000000000000000000005A0068
:1006C0000000000000000000000000005A000000D0
:1006D000000000000000000000005A001E000000A2
:1006E00000000000000000005A001E1E0000000074
:1006F0000000000000005A00001E1E000000000064
:10070000000000005A0000001E1E00000000000053
:1007100000005A000000001E1E0000000000000043
:100720005A00000000001E1E0000000000005A00D9
:1007300000000000001E1E00000000005A00000023
:10074000000000001E1E000000005A000000000013
:100750000000001E1E0000005A0000000000000003
:1007600000001E1E00005A000000000000000000F3
:10077000001E1E005A0000000000000000000000E3
:100780001E1E5A0000000000000000000000001EB5
:100790005A000000000000000000000000005A00A5
:1007A0000000000000000000000000005A000000EF
:1007B00000001E000000000000005A0000000000C1
:1007C0001E000000001E1E005A0000000000000075
:1007D0001E1E000000005A00001E00000000000065
:1007E000000000005A0000000000000000000000AF
:1007F00000005A0000001E00000000000000000081
:100800005A00000000000000001E1E0000005A00F8
:10081000000000000000000000001E1E5A00000042
:100820000000001E0000000000005A000000000050
:1008300000000000000000005A000000000000005E
:100840000000000000005A001E0000000000000030
:10085000000000005A001E00000000000000000020
:10086000001E5A0000000000001E00000000001ED4
:100870005A001E000000001E000000001E005A006A
:100880001E0000001E001E0000001E005A00001E78
:1008900000001E001E00001E00005A00001E001E68
:1008A0000000001E001E00005A001E001E1E000058
:1008B000001E000000005A001E001E000000000084
:1008C0001E00001E5A000000001E001E00001E0038
:1008D000001E5A000000001E001E000000001E0046
:1008E0005A001E0000001E00000000001E005A00FA
:1008F0001E0000001E001E00001E00005A00001E08
:10090000001E00001E00001E00005A00001E001EF7
:100910000000001E000000005A0000001E00000041
:10092000001E000000005A0000001E000000000031
:100930001E0000005A000000001E000000001E0003
:1009400000005A000000001E00000000000000002F
:100950005A000000000000000000000000005A00E3
:10096000000000000000000000000000C8000000BF
:1009700000000000000000001E00C8000000000091
:100980001E1E000000001E00C800000000001E1E09
:100990000000001E1E1EC8001E00001E1E1E0000BD
:1009A000001E001EC8001E00001E00001E001E1EAD
:1009B000001EC8001E1E1E1E00001E001E0000009D
:1009C000C800001E1E0000001E1E1E000000C80001
:1009D000001E1E000000001E00000000C8000000F5
:1009E00000000000001E00000000C8000000000021
:1009F0000000000000000000C8000000000000002F
:100A00000000000000002D001E1E0000001E1E1E23
:100A10000000001E2D0000001E1E1E0000001E1EF5
:100A20001E002D001E1E0000001E1E1E0000001EC7
:100A30002D0000001E1E1E0000001E1E1E002D00A8
:100A40001E1E0000001E1E1E0000001E2D000000C5
:100A50001E1E1E0000001E1E1E002D001E1E000079
:100A6000001E1E1E0000001E2D0000001E1E1E0087
:100A700000001E1E1E002D001E1E0000001E1E1E59
:100A80000000001E2D0000001E1E1E0000001E1E85
:100A90001E002D001E1E0000001E1E1E0000001E57
:100AA0002D0000001E1E1E0000001E1E1E002D0038
:100AB0000000000000000000000000002D00000009
:100AC000000000000000000000001E000000000008
:100AD000000000001E0000001E0000001E000000BC
:100AE00000001E0000001E0000001E000000001E8E
:100AF0001E0000001E00001E1E000000001E1E0042
:100B000000001E00001E1E0000001E1E1E00000031
:100B10001E001E1E1E0000001E1E1E0000001E00E5
:100B20001E1E1E0000001E1E1E00001E1E001E1E99
:100B30001E00001E1E1E1E00001E1E001E1E1E0089
:100B4000001E1E1E1E001E1E1E001E1E1E001E1E3D
:100B50001E1E1E001E1E1E001E1E1E001E1E1E1E0F
:100B6000001E1E1E1E001E1E001E1E1E1E1E001E1D
:100B70001E1E1E001E1E001E1E1E1E001E1E1E1EEF
:100B80001E001E001E1E1E1E1E001E1E1E1E1E00FD
:100B90001E001E1E1E1E001E1E1E1E1E1E00001EED
:100BA0001E1E1E1E001E1E1E1E1E1E00001E1E1EBF
:100BB0001E1E1E1E1E1E1E001E001E1E1E1E1E00AF
:100BC0001E1E1E1E1E001E001E1E1E1E1E001E1E9F
:100BD0001E1E00001E001E1E1E1E00001E1E1E1ECB
:100BE00000001E001E1E1E1E00001E1E1E00000015
:100BF0001E001E1E1E0000001E1E1E0000001E0005
:100C00001E1E1E0000001E1E000000001E001E1EF4
:100C1000000000001E1E000000001E001E1E00003E
:100C200000001E00000000001E001E00000000006A
:100C30001E00000000001E001E000000000000005A
:100C4000000000001E000000000000000000000086
:100C500000001E0000000000000000000000000076
:100C60003C000000001E00000000000000003C00EE
:100C700000001E000000000000001E003C00001EDE
:100C80001E0000000000001E00003C001E1E0000B0
:100C9000001E00001E0000003C0000001E1E001E82
:100CA000001E00001E003C001E00001E1E001E0054
:100CB0001E00001E3C00001E001E1E00001E001E26
:100CC000001E3C00001E1E1E000000001E1E1E0016
:100CD0003C0000001E001E001E001E1E1E003C00E8
:100CE0001E1E001E001E0000001E001E3C001E1ED8
:100CF0000000001E1E001E001E003C0000001E0022
:100D00001E00001E1E1E001E3C001E001E1E1E0099
:100D10001E00001E00003C00001E1E001E1E001EC5
:100D20000000001E3C00001E001E1E1E1E001E00B5
:100D300000003C001E1E001E001E0000001E1E00C3
:100D40003C001E1E001E001E00001E00001E3C0077
:100D5000001E001E0000001E001E001E3C001E00A3
:100D60001E00001E000000001E003C0000001E00CF
:100D700000000000001E1E003C0000000000001EDD
:100D800000001E0000003C00000000000000000009
:100D9000001E00003C0000000000000000000000F9
:100DA00000003C0000000000000000000000000007
:100DB000C8001E1E1E1E1E1E000000000000C800EF
:100DC0000000000000001E1E1E1E1E1EC8001E1E6B
:100DD0001E1E1E1E000000000000C80000000000D3
:100DE00000001E1E1E1E1E1EC8001E1E1E1E1E1ED3
:100DF000000000000000C8000000000000001E1EEF
:100E00001E1E1E1EC8001E1E1E1E1E1E00000000EE
:100E10000000C8000000000000001E1E1E1E1E1E56
:100E2000C800000000000000000000000000C80032
:100E30000000000000000000000000005A00001E3A
:100E400000000000001E000000005A00001E00000C
:100E50001E00001E00001E005A00001E1E001E0084
:100E6000001E1E001E005A001E1E1E001E001E1E1A
:100E70001E001E005A001E1E1E1E1E001E1E1E1ECE
:100E80001E005A001E1E1E1E1E1E1E1E1E1E1E1E82
:100E90005A001E001E1E1E1E1E001E1E1E1E5A0072
:100EA0001E001E001E1E1E001E001E1E5A001E00DA
:100EB00000001E1E1E0000001E1E5A001E00000024
:100EC0001E001E0000001E005A00000000001E0050
:100ED000000000001E005A0000000000000000009A
:100EE000000000005A0000000000000000000000A8
:100EF00000005A001E00000000000000000000007A
:100F00005A001E00000000001E000000001E5A00D3
:100F10001E1E0000001E1E000000001E5A00001EC3
:100F20000000001E1E1E00001E1E5A00001E1E0095
:100F30001E1E001E00001E005A001E001E001E0085
:100F4000001E1E1E1E005A001E001E1E1E001E0039
:100F50001E1E001E5A001E1E001E001E1E001E1E0B
:100F6000001E5A00001E001E001E1E1E00001E1E37
:100F70005A00001E1E001E1E001E00001E005A0009
:100F80001E001E001E00001E1E1E1E005A001E0017
:100F90001E1E1E001E001E1E001E5A001E1E001ECB
:100FA000001E1E001E1E001E5A00001E001E001EF7
:100FB0001E1E00001E1E5A00001E1E001E1E001EC9
:100FC00000001E005A0000001E001E00001E1E1E13
:100FD0001E005A0000001E1E1E0000001E1E000003
:100FE0005A000000001E000000001E1E00005A00F3
:100FF0000000001E00000000000000005A00000079
:10100000000000000000000000005A000000000086
:1010100000000000000000005A001E000000000058
:101020000000000000005A000000000000001E0048
:101030000000001E5A00001E0000001E00000000FC
:1010400000005A001E0000000000001E00001E00EC
:101050005A0000001E001E001E000000001E5A0064
:10106000001E0000001E00001E1E00005A001E0090
:10107000001E0000001E00001E005A0000001E009E
:101080001E001E000000001E5A00001E0000001E70
:1010900000001E1E00005A001E00001E0000001E60
:1010A00000001E005A0000001E001E001E0000006E
:1010B000001E5A00001E0000001E00001E1E000040
:1010C0005A001E00001E0000001E00001E005A00F4
:1010D00000001E001E001E000000001E5A00001E20
:1010E0000000001E00001E1E00005A000000001E2E
:1010F0000000001E00001E005A0000001E001E001E
:101100000000000000005A00000000000000000085
:101110001E1E00005A000000001E0000000000001B
:1011200000005A0000000000000000000000000065
:101130005A000000000000000000000000005A00FB
:101140001E1E1E1E1E1E1E1E1E1E1E1E5A001E1EA1
:101150001E1E1E1E1E1E1E1E1E1E5A001E1E1E1E91
:101160001E1E1E1E1E1E1E1E5A001E1E1E1E1E1E81
:101170001E1E1E1E1E1E5A001E1E1E1E1E1E1E1E71
:101180001E1E1E1E5A001E001E1E1E1E1E1E1E1E7F
:101190001E1E5A001E001E1E1E1E1E1E1E001E1E8D
:1011A0005A0000001E1E1E1E1E1E1E001E1E5A007D
:1011B0000000001E1E1E1E1E1E001E1E5A000000E5
:1011C000001E1E1E1E1E1E001E005A000000001ED5
:1011D000001E1E1E1E001E005A000000001E001EE3
:1011E0001E1E00001E005A000000001E001E001EF1
:1011F00000001E005A000000001E0000001E00003B
:101200001E005A00000000000000001E00001E002A
:101210005A00000000000000000000001E005A00FC
:101220000000000000000000000000005A000F084D
:10123000080F080808080808080814000808080823
:1012400008080F080F0F080F1400080F0F080F0FE2
:101250000808080808081400080808080808080F03
:1012600008080F081400080F0F080F0F08080808D7
:10127000080814000808080808080F080F0F080FCE
:1012800014000F08080F08080F08080F08085A0074
:1012900008080F08080F08080F08080F5A00080F61
:1012A00008080F08080F08080F085A000F08080858
:1012B00008080F08080808085A000808080F080856
:1012C0000808080F08085A00080F08080808080F3F
:1012D000080808085A00080808080F08080808083D
:1012E0000F085A0008080F08080808080F0808081F
:1012F0005A0008080808080F08080808080F5A00CC
:101300000808080F08080808080F08085A000F08FE
:10131000080808080F08080808085A0008080808FC
:101320000F08080808080F085A00080F08080808DE
:10133000080F080808085A0008080808080F0808D5
:101340000808080F5A0008080F08080808080F08BE
:1013500008085A000F080F080F08080808080808AE
:101360005A00080F080F080F0808080808085A0054
:10137000080808080808080F080F080F5A0008088E
:10138000080808080F080F080F085A000F0F080F69
:101390000F080F08080F08085A00080F08080F0860
:1013A0000F0F080F0F085A00080F0F080F0F080F34
:1013B00008080F085A0008080F08080F080F0F0840
:1013C0000F0F5A000F080F0F080F08080F08080F1B
:1013D0005A0008080F08080F080F0F080F0F5A00CF
:1013E000080F0F080F0F080F08080F085A00080F02
:1013F00008080F080F0F080F0F085A000F080808F9
:1014000008080808080808085A0008080808080812
:101410000F080808080F5A00080F0808080F0808E6
:10142000080808085A00080808080808080F0808EB
:101430000F085A0008080F080F08080808080808CD
:101440005A0008080808080808080F0F08085A007A
:101450000808080F08080808080808085A000808BB
:101460000808080808080F0F08085A0008080F089D
:101470000F080808080808085A000808080808089B
:10148000080F08080F085A00080F0808080F080876
:10149000080808085A000808080808080F0808087B
:1014A000080F5A000F08080F08080808080808085D
:1014B0005A000808080808080F080F0F080F5A00FC
:1014C000080808080808080F08080F085A00080F3D
:1014D0000F080F0F0808080808085A00080808082D
:1014E0000808080F08080F085A0008080808080824
:1014F0000F080F0F080F5A000F08080808080F08F8
:101500000808080F5A000808080F080808080F0FF5
:1015100008085A000F08080808080F080808080FEC
:101520005A000808080F080808080F0F08085A0092
:10153000080F0F080808080F080808085A000808CC
:1015400008080F0F080808080F085A00080F0F08AE
:101550000808080F080808085A00080808080F0FAC
:10156000080808080F085A000F08080808080808A3
:10157000080808085A000808080808080F0808089A
:1015800008085A00080F080808080808080808088A
:101590005A00080808080808080F080808085A0030
:1015A00008080F0808080808080808085A0008086A
:1015B0000808080808080F0808085A000808080F53
:1015C00008080808080808085A000F08080808084A
:1015D0000808080808085A00080808080808080841
:1015E0000808080F5A0008080808080F0808080823
:1015F00008085A00080808080808080808080F081A
:101600005A00080808080F080808080808085A00BF
:101610000808080808080808080F08085A000808F9
:10162000080F08080808080808085A0008080808E9
:1016300008080F08080F08085A00080808080808D2
:101640000808080808085A000808080808080F08C9
:10165000080F08085A0008080808080808080808B9
:1016600008085A00080808080808080F08080F08A2
:101670005A000808080808080808080808085A0056
:10168000080808080808080F08080F085A00080882
:10169000080808080808080808085A000808080880
:1016A000080808080F08080F5A0008080808080862
:1016B0000808080808085A00080808080808080860
:1016C0000F08080F5A000808080808080808080842
:1016D00008085A00000000000000000000000000A0
:1016E0001E00FF0000FF00000000000000001E00C0
:1016F000FF0000FF0000FF0000FF00001E00FFFFD2
:1017000000FFFF00FF0000FF00001E00FFFF00FFC2
:10171000FF00FFFF00FFFF001E0000FFFF00FFFFB4
:10172000FFFF00FFFF001E0000FFFF00FFFF00FFA4
:10173000FF00FFFF1E00FF00FFFF00FF00FFFF0094
:10174000FFFF1E00FF00FFFF00FFFF00FFFF00FF85
:101750001E00FFFF00FFFF00FF00FFFF00FF1E0055
:10176000FFFF00FFFF00FFFF00FFFF001E0000FF64
:10177000FF00FFFFFFFF00FFFF001E0000FFFF0054
:10178000FFFF00FFFF00FFFF1E00FF00FFFF00FF45
:1017900000FFFF00FFFF1E00FF00FFFF00FFFF0034
:1017A000FFFF00FF1E00FFFF00FFFF00FF00FFFF25
:1017B00000FF1E00FFFF00FFFF00FFFF00FFFF0014
:1017C0001E0000FFFF00FFFFFFFF00FFFF001E00E5
:1017D00000FFFF00FFFF00FFFF00FFFF1E00FF00F4
:1017E000FFFF00FF00FFFF00FFFF1E00FF00FFFFE5
:1017F00000FFFF00FFFF00FF1E00FFFF00FFFF00D4
:10180000FF00FFFF00FF1E00FFFF00FFFF00FFFFC4
:1018100000FFFF001E0000FFFF00FFFFFFFF00FFB3
:10182000FF001E0000FFFF00FFFF00FFFF00FFFFA3
:101830001E00FF00FFFF00FF00FFFF00FFFF1E0074
:10184000FF00FFFF00FFFF00FFFF00FF1E00FFFF84
:1018500000FFFF00FF00FFFF00FF1E00FFFF00FF73
:10186000FF00FFFF00FFFF001E0000FFFF00FFFF63
:10187000FFFF00FFFF001E0000FFFF00FFFF00FF53
:10188000FF00FFFF1E00FF00FFFF00FF00FFFF0043
:10189000FFFF1E00FF00FFFF00FFFF00FFFF00FF34
:1018A0001E00FFFF00FFFF00FF00FFFF00FF1E0004
:1018B000FFFF00FFFF00FFFF00FFFF001E0000FF13
:1018C000FF00FFFFFFFF00FFFF001E0000FFFF0003
:1018D000FFFF00FFFF00FFFF1E00FF00FFFF00FFF4
:1018E00000FFFF00FFFF1E00FF00FFFF00FFFF00E3
:1018F000FFFF00FF1E00FFFF00FFFF00FF00FFFFD4
:1019000000FF1E00FFFF00FFFF00FFFF00FFFF00C2
:101910001E0000FFFF00FFFFFFFF00FFFF001E0093
:1019200000FFFF00FFFF00FFFF00FFFF1E00FF00A2
:10193000FFFF00FF00FFFF00FFFF1E00FF00FFFF93
:1019400000FFFF00FFFF00FF1E00FFFF00FFFF0082
:10195000FF00FFFF00FF1E00FFFF00FFFF00FFFF73
:1019600000FFFF001E0000FFFF00FFFFFFFF00FF62
:10197000FF001E0000FFFF00FFFF00FFFF00FFFF52
:101980001E00FF00FFFF00FF00FFFF00FFFF1E0023
:10199000FF00FFFF00FFFF00FFFF00FF1E00FFFF33
:1019A00000FFFF00FF00FFFF00FF1E00FFFF00FF22
:1019B000FF00FFFF00FFFF001E0000FFFF00FFFF12
:1019C000FFFF00FFFF001E0000FFFF00FFFF00FF02
:1019D000FF00FFFF1E00FF00FFFF00FF00FFFF00F2
:1019E000FFFF1E00FF00FFFF00FFFF00FFFF00FFE3
:1019F0001E00FFFF00FFFF00FF00FFFF00FF1E00B3
:101A0000FFFF00FFFF00FFFF00FFFF001E0000FFC1
:101A1000FF00FFFFFFFF00FFFF001E0000FFFF00B1
:101A2000FFFF00FFFF00FFFF1E00FF00FFFF00FFA2
:101A300000FFFF00FFFF1E00FF00FFFF00FFFF0091
:101A4000FFFF00FF1E00FFFF00FFFF00FF00FFFF82
:101A500000FF1E00FFFF00FFFF00FFFF00FFFF0071
:101A60001E0000FFFF00FFFFFFFF00FFFF001E0042
:101A700000FFFF00FFFF00FFFF00FFFF1E00FF0051
:101A8000FFFF00FF00FFFF00FFFF1E00FF00FFFF42
:101A900000FFFF00FFFF00FF1E00FFFF00FFFF0031
:101AA000FF00FFFF00FF1E00FFFF00FFFF00FFFF22
:101AB00000FFFF001E0000FFFF00FFFFFFFF00FF11
:101AC000FF001E0000FFFF00FFFF00FFFF00FFFF01
:101AD0001E00FF00FFFF00FF00FFFF00FFFF1E00D2
:101AE000FF00FFFF00FFFF00FFFF00FF1E00FFFFE2
:101AF00000FFFF00FF00FFFF00FF1E00FFFF00FFD1
:101B0000FF00FFFF00FFFF001E0000FFFF00FFFFC0
:101B1000FFFF00FFFF001E0000FFFF00FFFF00FFB0
:101B2000FF00FFFF1E00FF00FFFF00FF00FFFF00A0
:101B3000FFFF1E00FF00FFFF00FFFF00FFFF00FF91
:101B40001E00FFFF00FFFF00FF00FFFF00FF1E0061
:101B5000FFFF00FFFF00FFFF00FFFF001E0000FF70
:101B6000FF00FFFFFFFF00FFFF001E0000FFFF0060
:101B7000FFFF00FFFF00FFFF1E00FF00FFFF00FF51
:101B800000FFFF00FFFF1E00FF00FFFF00FFFF0040
:101B9000FFFF00FF1E00FFFF00FFFF00FF00FFFF31
:101BA00000FF1E00FFFF00FFFF00FFFF00FFFF0020
:101BB0001E0000FFFF00FFFFFFFF00FFFF001E00F1
:101BC00000FFFF00FFFF00FFFF00FFFF1E00FF0000
:101BD000FFFF00FF00FFFF00FFFF1E00FF00FFFFF1
:101BE00000FFFF00FFFF00FF1E00FFFF00FFFF00E0
:101BF000FF00FFFF00FF1E00FFFF00FFFF00FFFFD1
:101C000000FFFF001E0000FFFF00FFFFFFFF00FFBF
:101C1000FF001E0000FFFF00FFFF00FFFF00FFFFAF
:101C20001E00FF00FFFF00FF00FFFF00FFFF1E0080
:101C3000FF00FFFF00FFFF00FFFF00FF1E00FFFF90
:101C400000FFFF00FF00FFFF00FF1E00FFFF00FF7F
:101C5000FF00FFFF00FFFF001E0000FFFF00FFFF6F
:101C6000FFFF00FFFF001E0000FFFF00FFFF00FF5F
:101C7000FF00FFFF1E00FF00FFFF00FF00FFFF004F
:101C8000FFFF1E00FF00FFFF00FFFF00FFFF00FF40
:101C90001E00FFFF00FFFF00FF00FFFF00FF1E0010
:101CA000FFFF00FFFF00FFFF00FFFF001E0000FF1F
:101CB000FF00FFFFFFFF00FFFF001E0000FFFF000F
:101CC000FFFF00FFFF00FFFF1E00FF00FFFF00FF00
:101CD00000FFFF00FFFF1E00FF00FFFF00FFFF00EF
:101CE000FFFF00FF1E00FFFF00FFFF00FF00FFFFE0
:101CF00000FF1E00FFFF00FFFF00FFFF00FFFF00CF
:101D00001E0000FFFF00FFFFFFFF00FFFF001E009F
:101D100000FFFF00FFFF00FFFF00FFFF1E00FF00AE
:101D2000FFFF00FF00FFFF00FFFF1E00FF00FFFF9F
:101D300000FF0000FF0000FF1E00FF0000FF00008A
:101D40000000FF0000FF1E00FF0000FF0000000079
:101D5000000000001E000000000000000000000065
:101D600000001E0000000000000000000000000055
:101D70003C00FF0000FF00000000000000003C00ED
:101D8000FF0000FF0000FF0000FF00003C0000FF1C
:101D90000000FF00FF0000FF00003C0000FF00000B
:101DA000FF0000FF0000FF003C000000FF0000FFFC
:101DB00000FF0000FF003C000000FF0000FF0000EB
:101DC000FF0000FF3C00FF0000FF00000000FF00DC
:101DD00000FF3C00FF0000FF0000FF0000FF0000CC
:101DE0003C0000FF0000FF00FF0000FF00003C007F
:101DF00000FF0000FF0000FF0000FF003C000000AB
:101E0000FF0000FF00FF0000FF003C000000FF009B
:101E100000FF0000FF0000FF3C00FF0000FF00008B
:101E20000000FF0000FF3C00FF0000FF0000FF007B
:101E300000FF00003C0000FF0000FF00FF0000FF6B
:101E400000003C0000FF0000FF0000FF0000FF005A
:101E50003C000000FF0000FF00FF0000FF003C000E
:101E60000000FF0000FF0000FF0000FF3C00FF003B
:101E700000FF00000000FF0000FF3C00FF0000FF2B
:101E80000000FF0000FF00003C0000FF0000FF001A
:101E9000FF0000FF00003C0000FF0000FF0000FF0B
:101EA0000000FF003C000000FF0000FF00FF0000FA
:101EB000FF003C000000FF0000FF0000FF0000FFEB
:101EC0003C00FF0000FF00000000FF0000FF3C009E
:101ED000FF0000FF0000FF0000FF00003C0000FFCB
:101EE0000000FF00FF0000FF00003C0000FF0000BA
:101EF000FF0000FF0000FF003C000000FF0000FFAB
:101F000000FF0000FF003C000000FF0000FF000099
:101F1000FF0000FF3C00FF0000FF00000000FF008A
:101F200000FF3C00FF0000FF0000FF0000FF00007A
:101F30003C0000FF0000FF00FF0000FF00003C002D
:101F400000FF0000FF0000FF0000FF003C00000059
:101F5000FF0000FF00FF0000FF003C000000FF004A
:101F600000FF0000FF0000FF3C00FF0000FF00003A
:101F70000000FF0000FF3C00FF0000FF0000FF002A
:101F800000FF00003C0000FF0000FF00FF0000FF1A
:101F900000003C0000FF0000FF0000FF0000FF0009
:101FA0003C000000FF0000FF00FF0000FF003C00BD
:101FB0000000FF0000FF0000FF0000FF3C00FF00EA
:101FC00000FF00000000FF0000FF3C00FF0000FFDA
:101FD0000000FF0000FF00003C0000FF0000FF00C9
:101FE000FF0000FF00003C0000FF0000FF0000FFBA
:101FF0000000FF003C000000FF0000FF00FF0000A9
:10200000FF003C000000FF0000FF0000FF0000FF99
:102010003C00FF0000FF00000000FF0000FF3C004C
:10202000FF0000FF0000FF0000FF00003C0000FF79
:102030000000FF00FF0000FF00003C0000FF000068
:10204000FF0000FF0000FF003C000000FF0000FF59
:1020500000FF0000FF003C000000FF0000FF000048
:10206000FF0000FF3C00FF0000FF00000000FF0039
:1020700000FF3C00FF0000FF0000FF0000FF000029
:102080003C0000FF0000FF00FF0000FF00003C00DC
:1020900000FF0000FF0000FF0000FF003C00000008
:1020A000FF0000FF00FF0000FF003C000000FF00F9
:1020B00000FF0000FF0000FF3C00FF0000FF0000E9
:1020C0000000FF0000FF3C00FF0000FF0000FF00D9
:1020D00000FF00003C0000FF0000FF00FF0000FFC9
:1020E00000003C0000FF0000FF0000FF0000FF00B8
:1020F0003C000000FF0000FF00FF0000FF003C006C
:102100000000FF0000FF0000FF0000FF3C00FF0098
:1021100000FF00000000FF0000FF3C00FF0000FF88
:102120000000FF0000FF00003C0000FF0000FF0077
:10213000FF0000FF00003C0000FF0000FF0000FF68
:102140000000FF003C000000FF0000FF00FF000057
:10215000FF003C000000FF0000FF0000FF0000FF48
:102160003C00FF0000FF00000000FF0000FF3C00FB
:10217000FF0000FF0000FF0000FF00003C0000FF28
:102180000000FF00FF0000FF00003C0000FF000017
:10219000FF0000FF0000FF003C000000FF0000FF08
:1021A00000FF0000FF003C000000FF0000FF0000F7
:1021B000FF0000FF3C00FF0000FF00000000FF00E8
:1021C00000FF3C00FF0000FF0000FF0000FF0000D8
:1021D0003C0000FF0000FF00FF0000FF00003C008B
:1021E00000FF0000FF0000FF0000FF003C000000B7
:1021F000FF0000FF00FF0000FF003C000000FF00A8
:1022000000FF0000FF0000FF3C00FF0000FF000097
:102210000000FF0000FF3C00FF0000FF0000000086
:10222000000000003C000000000000000000000072
:1022300000003C0000000000000000000000000062
:102240003200404040404040000000000000F401E7
:10225000000000000000404040404040F401000009
:10226000000000000000000000003200000000003C
:1022700000000000000000005A00640000000000A0
:102280000000000000005A0064000000000064002C
:10229000000000005A0064640000000064000000B8
:1022A00000005A0064640000000064640000000044
:1022B0005A006464640000006464000000005A0076
:1022C0006464640000006464640000005A00646494
:1022D000646400006464640000005A006464646420
:1022E00000006464646400005A0064646464640010
:1022F0006464646400005A00646464646400646438
:10230000646464005A00646464646464646464645F
:1023100064005A006464646464646464646464644F
:102320005A006464646464646464646464645A0049
:102330006464646464646464646464005A0064642F
:10234000646464006464646464005A006464646483
:1023500064006464646400005A006464646400009F
:102360006464646400005A0064646464000064642B
:10237000640000005A006464640000006464640047
:1023800000005A00646464000000646400000000FF
:102390005A006464000000006464000000005A00F9
:1023A0006464000000006400000000005A00640043
:1023B000000000006400000000005A0064000000FB
:1023C00000000000000000005A00000000000000B3
:1023D000000000000000960000000000000008005F
:1023E000000800009600000800000800080000082F
:1023F0000000960000080000080008080008080017
:102400009600000808000808080800080800960060
:1024100000080800080808080808080896000008CE
:102420000800080864080808080896000008080062
:102430000808640808640808960000640800080892
:1024400064080864080896000064080064086408CA
:10245000086408089600006408006408646408645E
:10246000080896000064080064086464086464084E
:10247000960000646400640864640864640896005C
:102480000064640064646464086464089600006422
:1024900064006464646464646408960000646400B6
:1024A0006464646464646464960000000000000076
:1024B0000000000000003200646464646464000092
:1024C00000000000F4010000000000006464646487
:1024D0006464F4010000000000000000000000003F
:1024E0003200000000000000000000000000E803CF
:1024F000000000000000000000000000E8030000F1
:1025000000000000000000000000000001000100C9
:1025100001000100020002000200030003000400A9
:102520000500050006000700080009000A000B006E
:102530000C000E000F001000120013001500170011
:1025400019001B001D001F0021002300250028008A
:102550002A002D0030003300360039003C003F00D7
:102560004200460049004D005100550058005D00F2
:102570006100650069006E00730077007C008100D7
:1025800086008C00910096009C00A200A800AD007F
:10259000B400BA00C000C700CD00D400DB00E200E8
:1025A000E900F000F800FF0007010E0116011E010E
:1025B00027012F0138014001490152015B016401EB
:1025C0006D01770181018A0194019E01A901B30186
:1025D000BE01C801D301DE01E901F40100020C02D1
:1025E000170223022F023C024802540261026E02CB
:1025F0007B0288029602A302B102BF02CD02DB0277
:10260000E902F802070315032503340343035303C8
:102610006203720382039303A303B403C403D503C9
:10262000E603F80309041B042D043F04510463046A
:10263000760489049C04AF04C204D604E904FD04B2
:10264000110525053A054E05630578058D05A30599
:10265000B805CE05E405FA05100627063E06550620
:102660006C0683069B06B206CA06E206FB06130743
:102670002C0745075E0777079107AA07C407DE07FF
:10268000F90713082E084908640880089B08B70852
:10269000D308EF080B092809450962097F099D093C
:1026A000BA09D809F609150A330A520A710A900ABA
:1026B000B00ACF0AEF0A0F0B2F0B500B710B920BC6
:1026C000B30BD40BF60B180C3A0C5C0C7E0CA10C63
:1026D000C40CE70C0B0D2E0D520D760D9B0DBF0D8E
:1026E000E40D090E2E0E540E790E9F0EC50EEC0E43
:1026F000120F390F600F880FAF0FD70FFF0F0000B9
:102700000000240027002A00000000002500280007
:102710002B0000000000230026002900040404040C
:10272000040404040202020202020303030303037B
:102730000102040810204080010204081020010258
:102740000408102000000007000201000003040636
:102750000000000000000000F82A11241FBECFEF87
:10276000D8E0DEBFCDBF12E0A0E0B1E0E4E3FDE5DC
:1027700002C005900D92AE3FB107D9F715E0AEEF5C
:10278000B2E001C01D92A33EB107E1F717E2CAE52E
:10279000D7E204C02297FE010E945D2EC835D10702
:1027A000C9F70E94482B0C94982E0C940000A0E0CE
:1027B000B0E0EDEDF3E10C94692EEC01A880B98056
:1027C000CA80DB80A114B104C104D10441F484E2C5
:1027D000A82E89EDB82E8BE5C82E87E0D82EC6012D
:1027E000B5012DE133EF41E050E00E94402E27EA91
:1027F00031E440E050E00E94DF2D7B018C01C601F6
:10280000B5012DE133EF41E050E00E94402ECA01B6
:10281000B9012CEE34EF4FEF5FEF0E94DF2D6E0D0C
:102820007F1D801F911F97FF04C061507040804042
:102830009048688379838A839B839B01AC015F778F
:10284000B901CA01CDB7DEB7EAE00C94852E0E942B
:10285000D713089580E091E00E94D7130895609304
:102860000001709301018093020190930301089588
:10287000FB01DC0102C005900D9241505040D8F799
:102880000895FB01DC0102C001900D9241505040BF
:10289000D8F708952F923F924F925F926F927F9256
:1028A0008F929F92AF92BF92CF92DF92EF92FF9260
:1028B0000F931F93DF93CF93CDB7DEB7E4970FB697
:1028C000F894DEBF0FBECDBF6E2C2C8B3B8B4A8B9A
:1028D000598B688B7F878C2D90E0A0E0B0E0BC0125
:1028E000CD010E94C62C698F7A8F8B8F9C8F60934D
:1028F0006F05709370058093710590937205AD2CF0
:10290000BB24CC24DD24C601B5010E94C62C5B018A
:102910006C016093730570937405809375059093B3
:102920007605772488249924C401B3010E94C62C1B
:102930003B014C016093770570937805809379058E
:1029400090937A052F2C332444245524C201B101DD
:102950000E94C62C1B012C0160937B0570937C05A3
:1029600080937D0590937E05602F70E080E090E07D
:102970000E94C62C6D8F7E8F8F8F98A360937F05EA
:10298000709380058093810590938205E12EFF244A
:1029900000E010E0C801B7010E94C62C7B018C0149
:1029A00060938305709384058093850590938605D5
:1029B0002C89622F70E080E090E00E94C62C69A311
:1029C0007AA38BA39CA3609387057093880580935B
:1029D000890590938A05AB896A2F70E080E090E0CA
:1029E0000E94C62C6DA37EA38FA398A760938B052E
:1029F00070938C0580938D0590938E05BA896B2F0B
:102A000070E080E090E00E94C62C69A77AA78BA7AF
:102A10009CA760938F057093900580939105909388
:102A200092052989622F70E080E090E00E94C62C18
:102A30006DA77EA78FA798AB6093930570939405BD
:102A40008093950590939605A8896A2F70E080E0A1
:102A500090E00E94C62C69AB7AAB8BAB9CAB6093C9
:102A60009705709398058093990590939A05BF8573
:102A70006B2F70E080E090E00E94C62C6D8B7E8B07
:102A80008F8B988F60939B0570939C0580939D0519
:102A900090939E056091FE027091FF028091000369
:102AA00090910103298D3A8D4B8D5C8D0E94C92B2D
:102AB00020E030E040E85CE30E947C2D60932F052D
:102AC0007093300580933105909332056091020335
:102AD000709103038091040390910503A601950171
:102AE0000E94C92B20E030E040E85CE30E947C2D8E
:102AF00060933305709334058093350590933605C4
:102B00006091060370910703809108039091090377
:102B1000A40193010E94C92B20E030E040E85CE36F
:102B20000E947C2D6093370570933805809339059A
:102B300090933A0560910A0370910B0380910C0306
:102B400090910D03A20191010E94C92B20E030E079
:102B500040E85CE30E947C2D60933B0570933C054C
:102B600080933D0590933E0560910E0370910F0395
:102B700080911003909111032D8D3E8D4F8D58A1A2
:102B80000E94C92B20E030E040E85CE30E947C2DED
:102B900060933F05709340058093410590934205F3
:102BA00060911203709113038091140390911503A7
:102BB000A80197010E94C92B20E030E040E85CE3C7
:102BC0000E947C2D609343057093440580934505D6
:102BD0009093460560911603709117038091180336
:102BE0009091190329A13AA14BA15CA10E94C92B84
:102BF00020E030E040E85CE30E947C2D60934705D4
:102C0000709348058093490590934A0560911A0393
:102C100070911B0380911C0390911D032DA13EA177
:102C20004FA158A50E94C92B20E030E040E85CE3AA
:102C30000E947C2D60934B0570934C0580934D054D
:102C400090934E0560911E0370911F0380912003A5
:102C50009091210329A53AA54BA55CA50E94C92BFB
:102C600020E030E040E85CE30E947C2D60934F055B
:102C70007093500580935105909352056091220303
:102C80007091230380912403909125032DA53EA5E7
:102C90004FA558A90E94C92B20E030E040E85CE332
:102CA0000E947C2D609353057093540580935505C5
:102CB0009093560560912603709127038091280315
:102CC0009091290329A93AA94BA95CA90E94C92B73
:102CD00020E030E040E85CE30E947C2D60935705E3
:102CE000709358058093590590935A0560912A0373
:102CF00070912B0380912C0390912D032D893E8997
:102D00004F89588D0E94C92B20E030E040E85CE3F9
:102D10000E947C2D60935B0570935C0580935D053C
:102D200090935E05E4960FB6F894DEBF0FBECDBF5C
:102D3000CF91DF911F910F91FF90EF90DF90CF9097
:102D4000BF90AF909F908F907F906F905F904F90CB
:102D50003F902F9008952F923F924F925F926F92E3
:102D60007F928F929F92AF92BF92CF92DF92EF921B
:102D7000FF920F931F93DF93CF9300D000D000D02A
:102D8000CDB7DEB7E52EA62E672E842F90E0A0E00B
:102D9000B0E0BC01CD010E94C62C1B012C01609348
:102DA000A3057093A4058093A5059093A605FF2421
:102DB00000E010E0C801B7010E94C62C7B018C0125
:102DC0006093A7057093A8058093A9059093AA0521
:102DD000BB24CC24DD24C601B5010E94C62C5B01B6
:102DE0006C016093AB057093AC058093AD05909337
:102DF000AE05772488249924C401B3010E94C62C0F
:102E00003B014C0160939F057093A0058093A10541
:102E10009093A20560913203709133038091340343
:102E200090913503A20191010E94C92B20E030E06E
:102E300040E85CE30E947C2D609363057093640519
:102E40008093650590936605609136037091370312
:102E50008091380390913903A80197010E94C92BF2
:102E600020E030E040E85CE30E947C2D6093670541
:102E7000709368058093690590936A0560913A03A1
:102E800070913B0380913C0390913D03A601950115
:102E90000E94C92B20E030E040E85CE30E947C2DDA
:102EA00060936B0570936C0580936D0590936E0530
:102EB00060912E0370912F03809130039091310324
:102EC000A40193010E94C92B20E030E040E85CE3BC
:102ED0000E947C2D60935F0570936005809361056F
:102EE0009093620526960FB6F894DEBF0FBECDBF55
:102EF000CF91DF911F910F91FF90EF90DF90CF90D6
:102F0000BF90AF909F908F907F906F905F904F9009
:102F10003F902F9008958F929F92AF92BF92CF9241
:102F2000DF92EF92FF920F931F93CF93DF93882E40
:102F3000CEE2D3E0AFE5AA2EA5E0BA2EFFE9CF2E70
:102F4000F5E0DF2EE3E09E2EE880F9800A811B8108
:102F5000C801B7010E949A2CE62FF0E0EE0FFF1F88
:102F6000E250FB4D45915491292D30E0C901880F65
:102F7000991F820F931F95958795E82FF0E0382FC2
:102F80003F5F90FC15C0E553FA4FCA0124E09695C7
:102F900087952A95E1F78083E32FF0E0E553FA4F18
:102FA00080818F70942F9295907F892B80830BC0A6
:102FB000E553FA4F8081807F852B8083E32FF0E0FB
:102FC000E553FA4F40838820C9F0C801B701F601E4
:102FD00020813181428153810E942E2C8823B9F0B7
:102FE000C801B701F50120813181428153810E94DE
:102FF000C92B688379838A839B8309C0F60180810A
:103000009181A281B38188839983AA83BB8324960B
:103010009A9484E090E0A80EB91EC80ED91E9FEFC6
:10302000991609F091CFDF91CF911F910F91FF90E9
:10303000EF90DF90CF90BF90AF909F908F900895CA
:1030400080933E0310923F0381E08093400360939E
:10305000D2028FEF809341034093430384E0809337
:10306000420380E00895CF93DF938091400388234B
:1030700009F470C0F0996EC080913F038C3FF1F469
:103080008091410390E020913E0330E0FC01EE0F7F
:10309000FF1FE80FF91FEE0FFF1FC901880F991FCF
:1030A000820F931F73E0880F991F7A95E1F7E80F5D
:1030B000F91FEC5FFE4FC481D58138C08823A1F58C
:1030C000809141038F5F8093410390914203891760
:1030D00040F0109241038091D202882311F41092A3
:1030E00040038091410390E020913E0330E0FC01D9
:1030F000EE0FFF1FE80FF91FEE0FFF1FC901880F2A
:10310000991F820F931FB3E0880F991FBA95E1F7BB
:10311000E80FF91FEC5FFE4F40815181628173819E
:10312000848195810E94AB16C0E0D0E090E0809150
:103130004303811191E0892F0E948B17F09A8091AF
:103140003F038C5F80933F03809143039E01280FD0
:10315000311D02C020E030E0C901DF91CF91089518
:103160005F926F927F928F929F92AF92BF92CF9217
:10317000DF92EF92FF920F931F93CF93DF93582E1E
:10318000BFE6CB2EB5E0DB2EAFE26A2EA5E07A2EAD
:10319000CEEFD2E0FDE28F2E912CEFE0AE2EB12CDF
:1031A00080914D03882371F0F601608171818281E5
:1031B000938120E030E040E050E00E942E2C8823F4
:1031C00009F460C0688179818A819B810E949A2C70
:1031D000E62FF0E0EE0FFF1FE250FB4D25913491FA
:1031E000C40195958795E82FF0E0482F4F5FA0FC2C
:1031F00015C0E553FA4FC90154E0969587955A9545
:10320000E1F78083E42FF0E0E553FA4F922F929597
:10321000907F80818F70982B90830BC0E553FA4F7D
:103220008081807F832B8083E42FF0E0E553FA4F89
:103230002083F09A5520E9F0E880F9800A811B810B
:10324000C801B701F60120813181428153810E947A
:103250002E2C8823B9F0C801B701F30120813181F8
:10326000428153810E94C92B688379838A839B831F
:1032700009C0F60180819181A281B38188839983FD
:10328000AA83BB8384E090E0C80ED91E680E791E25
:103290002496EDEFFFEF8E0E9F1E0894A108B10853
:1032A000FFE9CF16F5E0DF0609F07ACFDF91CF9185
:1032B0001F910F91FF90EF90DF90CF90BF90AF9054
:1032C0009F908F907F906F905F9008958F929F92C4
:1032D000AF92BF92CF92DF92EF92FF920F931F9324
:1032E000CF93DF9380914D03882329F42091BB0570
:1032F0003091BC0595C03FE6C32E35E0D32ECEEF0E
:10330000D2E02DE2822E912C9FE0A92EB12CF60165
:10331000608171818281938120E030E040E050E063
:103320000E942E2C882329F080914603882309F0DF
:1033300063C0688179818A819B810E949A2CE62FE3
:10334000F0E0EE0FFF1FE250FB4D25913491C401D8
:1033500095958795E82FF0E0482F4F5FA0FC15C0AA
:10336000E553FA4FC90114E0969587951A95E1F750
:103370008083E42FF0E0E553FA4F922F9295907FEF
:1033800080818F70982B90830BC0E553FA4F80811A
:10339000807F832B8083E42FF0E0E553FA4F208376
:1033A000F09AE880F9800A811B81C801B701F60113
:1033B00020813181428153810E942E2C8823E1F0AB
:1033C000C801B7012AE037ED43EA5EE30E94C92B4A
:1033D000688379838A839B8320E030E040E050E07B
:1033E0000E942E2C882344F480E090E0A0E0B0E01E
:1033F00088839983AA83BB8384E090E0C80ED91E9A
:103400002496EDEFFFEF8E0E9F1E0894A108B108E1
:10341000FFE9CF16F5E0DF0609F079CF23E030E0D1
:10342000C901DF91CF911F910F91FF90EF90DF9035
:10343000CF90BF90AF909F908F90089586E6809335
:103440007C0010927B008FEC80937A00089510929C
:103450007A0008959C0180917103909172030A97FC
:1034600040F086E680937C0010927B008FEC809386
:103470007A0081E0809368038093080430936A03A4
:10348000209369038CE08093FB0308951F920F92B1
:103490000FB60F921124DF92EF92FF920F931F93BA
:1034A0002F933F934F935F936F937F938F939F934C
:1034B000AF93BF93EF93FF9380917C00877086302A
:1034C00009F08BC1809179008093550380917A0037
:1034D000806C80937A0080915303909154030196FD
:1034E000909354038093530390915503809151031B
:1034F000891728F480915503809351030AC0909155
:1035000055038091D402981720F48091550380933D
:10351000D40280915303909154038436910509F0AD
:103520005CC1809151039091D402891B8093520316
:103530006091520370E0882777FD8095982F0E9454
:10354000C82C23E333E343E550E40E947C2D20E0C4
:1035500030E040E85BE30E947C2D6093560370935B
:10356000570380935803909359038FEF8093D402AD
:1035700010925103109254031092530380916803E8
:103580008823C1F08091690390916A03892B91F49B
:1035900080917103909172030A9710F010927A0053
:1035A0001092680310926A031092690381E080937D
:1035B00008040DC080916803882349F08091690355
:1035C00090916A03019790936A03809369038091B5
:1035D0005E0390915F03893C910508F43FC0E09041
:1035E0005A03F0905B0300915C0310915D036091BE
:1035F0005E0370915F0380E090E00E94C62C9B0107
:10360000AC01C801B7010E94322C60936003709333
:1036100061038093620390936303609160037091F0
:10362000610380916203909163032091560330916E
:10363000570340915803509159030E94CA2B60933D
:103640005A0370935B0380935C0390935D0382E065
:1036500090E090935F0380935E0323C080915E03AC
:1036600090915F03019690935F0380935E03609156
:103670005A0370915B0380915C0390915D032091EC
:1036800056033091570340915803509159030E94BB
:10369000CA2B60935A0370935B0380935C039093EF
:1036A0005D0380916703893C28F0109266031092B5
:1036B000670305C0809167038F5F809367038091E4
:1036C000640380936503E0905603F09057030091E4
:1036D00058031091590360916003709161038091C8
:1036E000620390916303DD242DEC3CEC4CE45DE33C
:1036F0000E94CA2B9B01AC01C801B7010E94782D22
:10370000181614F4DD24D394D092640380916803D6
:10371000882359F580917103909172030A9728F5D7
:103720008091D702882309F5809164038823E9F00A
:10373000809165038823C9F4809166038F5F80932D
:10374000660380916603853108F447C081E0809369
:1037500068038093080484E391E290936A03809362
:1037600069038CE08093FB0338C080916403882355
:1037700071F080916503882351F480916803882358
:1037800031F08091D802882311F089E00DC080913A
:103790006403882311F1809165038823F1F48091FB
:1037A000D7028823D1F08BE080933E0310923F0331
:1037B00081E0809340031092D2028FEF8093410307
:1037C0001092430384E08093420310920404109209
:1037D00005041092060410920704FF91EF91BF9127
:1037E000AF919F918F917F916F915F914F913F9199
:1037F0002F911F910F91FF90EF90DF900F900FBED0
:103800000F901F901895AF92BF92CF92DF92EF92D8
:10381000FF920F931F93DF93CF93CDB7DEB72E9711
:103820000FB6F894DEBF0FBECDBF8091460388234C
:1038300009F4B8C0F099B6C080914503882339F0E7
:1038400080914B03882319F0AA24BB2499C040918E
:10385000490350914A03809147039091480384178C
:103860009507C0F18091D302882329F01092480374
:10387000109247032FC080914E03882349F1209175
:103880004F03309150032115310511F1DE011196DE
:10389000EFEAF5E08EE001900D928150E1F7AFEA9A
:1038A000B5E0EDEBF5E08EE001900D928150E1F78F
:1038B000ADEBB5E0FE0131968EE001900D928150A6
:1038C000E1F7215030403093500320934F0302C062
:1038D00010924603A090BB05B090BC0580914E03AA
:1038E000882341F080914703909148030196841703
:1038F0009507F8F4E0914403F0E0EE0FFF1FE45C5D
:10390000FD4F8091470390914803880F991F9C01B8
:1039100043E0220F331F4A95E1F7281B390B6081E2
:103920007181620F731F8FEA95E04EE050E00E94B4
:103930003814C090AF05D090B005E090B105F0907C
:10394000B2050091B3051091B4052091B5053091F1
:10395000B6054091B7055091B8056091B9057091D1
:10396000BA058091BB059091BC050E944A148091D4
:10397000470390914803019690934803809347032F
:1039800080914B030E94B018809145038C5F809317
:10399000450380914B03882339F080914C03A80E96
:1039A000B11C02C0AA24BB24C5012E960FB6F89400
:1039B000DEBF0FBECDBFCF91DF911F910F91FF9062
:1039C000EF90DF90CF90BF90AF900895EF920F935C
:1039D000E82F809344031092450381E080934603CF
:1039E0006093D302109248031092470340934B0315
:1039F00020934C0310924E031092500310924F03E9
:103A0000F0E0EE0FFF1FE45CFD4F608171818FEAF3
:103A100095E04EE050E00E943814002349F4E09114
:103A20004403F0E0EC57FD4F80818093490302C0CE
:103A30000093490310924A03E0924D0380E00F91F6
:103A4000EF900895EF920F93DF93CF93CDB7DEB74A
:103A50000E94E61C81E080934E038D899E8990939D
:103A6000500380934F03ADEBB5E0FE0137968EE037
:103A700001900D928150E1F7CF91DF910F91EF907E
:103A800008950E946D1DEBECF5E010821182128208
:103A9000339685E0E33EF807C1F70E94511D789404
:103AA00008955F9902C090E002C05F9891E05E982F
:103AB000EBECF5E08091C00085FFFCCF8191809315
:103AC000C60085E0E33EF807A9F75E9A5D9A5D9827
:103AD000992311F05C9A5C980895E4ECF0E011826F
:103AE0001082549A539A579A559A569A519A5C98BA
:103AF0005B985F9A5D985E9AF098F19880EC80935D
:103B0000C20088E08093C1001182108282E080931D
:103B1000B00084E08093B1008FE08093B300E0E7D1
:103B2000F0E080818260808308951F920F920FB62B
:103B30000F9211248F93EF93FF935E9AF19B03C032
:103B4000F1985D9A5D985E98F09B0FC0EBECF5E004
:103B50008091C00085FFFCCF81918093C60085E0F5
:103B6000E33EF807A9F7F19AF098FF91EF918F9152
:103B70000F900FBE0F901F9018959C018091F50338
:103B8000882379F42115310579F080910A0488237E
:103B9000A1F48091FB03882381F481E080930904E0
:103BA0000CC02115310549F480916803882311F474
:103BB0001092FB038CE390E04AC02130310551F4B0
:103BC00080916803882319F481E08093FB038DE2E0
:103BD00090E03DC02430310550F480916803882383
:103BE00019F482E08093FB0383E290E030C0293037
:103BF000310550F480916803882319F483E08093A1
:103C0000FB038BE190E023C02031310550F480911B
:103C10006803882319F484E08093FB0384E190E037
:103C200016C02831310550F480916803882319F4B7
:103C300085E08093FB038FE090E009C080916803EA
:103C4000882319F486E08093FB0388E090E090934A
:103C5000D6028093D5022093F50308958091400306
:103C6000882369F12091790330917A0340917B0395
:103C700050917C038091040490910504A091060466
:103C8000B0910704281739074A075B07C0F00E9464
:103C90003318A0E0B0E02091790330917A0340918D
:103CA0007B0350917C03820F931FA41FB51F809349
:103CB000040490930504A0930604B0930704809134
:103CC000D702882341F580914003882371F08091C9
:103CD0006803882301F58091D8028823E1F0909150
:103CE000FB0380913E038917B1F08091F60390E0C9
:103CF0000E94BD1D8091FB0361E040E00E942018FE
:103D000090E0A0E0B0E08093040490930504A093B9
:103D10000604B09307040895EF920F93CF93DF93B7
:103D200080916803882309F055C00091F4030A309C
:103D3000F8F08DB79EB740970FB6F8949EBF0FBEB0
:103D40008DBFCDB7DEB72196DE01E6EBF2E08EE067
:103D500001900D928150E1F786E090E09F878E8779
:103D600082E260E041E022E001E1EE24E3941DC044
:103D70008DB79EB740970FB6F8949EBF0FBE8DBF0C
:103D8000CDB7DEB72196095FDE01E4ECF2E08EE00C
:103D900001900D928150E1F780E190E09F878E873E
:103DA00082E260E041E022E0EE240E94221D90E0E9
:103DB000A0E0B0E08093FC039093FD03A093FE038A
:103DC000B093FF038DB79EB740960FB6F8949EBF91
:103DD0000FBE8DBFDF91CF910F91EF900895EF92BD
:103DE0000F93CF93DF9380916803882309F05EC01F
:103DF0008091F303813041F166E00E94FE2D09E1DC
:103E0000081B0E3010F00E3001F58DB79EB74097AD
:103E10000FB6F8949EBF0FBE8DBFCDB7DEB721960B
:103E2000DE01E6EBF2E08EE001900D928150E1F7C9
:103E300089E090E09F878E8780E260E041E022E0A9
:103E40000EE0EE24E3941DC00AE18DB79EB74097C3
:103E50000FB6F8949EBF0FBE8DBFCDB7DEB72196CB
:103E6000DE01E8EAF2E08EE001900D928150E1F788
:103E700080E190E09F878E8780E260E041E022E071
:103E8000EE240E94221D90E0A0E0B0E08093FC03AD
:103E90009093FD03A093FE03B093FF038DB79EB7ED
:103EA00040960FB6F8949EBF0FBE8DBFDF91CF91A5
:103EB0000F91EF900895EF920F938091080488235B
:103EC00041F480914603882399F58091D802882394
:103ED00079F581E08093D802109208041092F903DA
:103EE0001092F80320917103309172032A3031054A
:103EF00008F056C180916803882309F051C1809170
:103F0000D702882309F04CC1822F8C5E61E041E02A
:103F100022E000E0EE240E94E61C90E0A0E0B0E089
:103F20008093FC039093FD03A093FE03B093FF03E3
:103F300080916803882391F08091DA02882311F040
:103F40001092DA028091D902882311F01092D902DE
:103F500080910904882311F01092090480910A04C9
:103F6000882349F11092D80210920A048EE160E091
:103F700040E022E000E0EE240E94E61C90E0A0E099
:103F8000B0E08093FC039093FD03A093FE03B093F5
:103F9000FF0388E061E040E00E94201890E0A0E08C
:103FA000B0E08093040490930504A0930604B093BA
:103FB0000704109209048091D802882351F080915F
:103FC000DA02882331F01092D8021092DA020E94AD
:103FD000EF1E8091D802882351F08091D902882366
:103FE00031F01092D8021092D9020E948C1E80915A
:103FF00009048823E9F0809168038823C9F41092AA
:10400000D80210920804109209048FE160E040E0A9
:1040100022E000E0EE240E94E61C90E0A0E0B0E088
:104020008093FC039093FD03A093FE03B093FF03E2
:104030008091D802882309F454C0809168038823B2
:1040400009F04FC02091D5023091D60288EE93E05E
:10405000A901489F9001499F300D589F300D1124B0
:104060008091F8039091F90328173907D0F58091D2
:10407000F3038D3328F42AE030E040E050E004C040
:1040800024E130E040E050E060E070E080E090E06B
:104090000E94A32B6093FA038091F4038A3038F4D2
:1040A00030E080917103909172030A9708F431E037
:1040B000862F60E041E021E000E0E32E0E94E61C54
:1040C00090E0A0E0B0E08093FC039093FD03A09308
:1040D000FE03B093FF031092F9031092F8031092BD
:1040E000D80280914603882369F1209179033091A9
:1040F0007A0340917B0350917C038091FC03909163
:10410000FD03A091FE03B091FF03281739074A076A
:104110005B07C0F00E94031CA0E0B0E0209179038F
:1041200030917A0340917B0350917C03820F931F5F
:10413000A41FB51F8093FC039093FD03A093FE037F
:10414000B093FF032091790330917A0340917B0370
:1041500050917C038091000490910104A09102048D
:10416000B0910304281739074A075B07F0F00E9453
:104170006619A0E0B0E02091790330917A03409174
:104180007B0350917C03820F931FA41FB51F809364
:10419000000490930104A0930204B093030405C0AB
:1041A00083E261E040E020E0B4CE0F91EF9008950B
:1041B0000E945B1F0E942E1E8091D7028823D1F09F
:1041C0008091790390917A03A0917B03B0917C0355
:1041D00081529E44A040B04068F01092D70281E026
:1041E0008093080480917103909172030A9710F0F4
:1041F0000E94271A0895EF92FF920F931F93A8959C
:104200000E9426286093790370937A0380937B033E
:1042100090937C032091750330917603409177034E
:10422000509178037B018C01E21AF30A040B150B01
:10423000A8019701E0927D03F0927E0300937F0333
:1042400010938003609375037093760380937703D4
:104250009093780380910B0490910C048E0D9F1D18
:1042600090930C0480930B048091D702882351F41F
:104270008091F8039091F9038E0D9F1D9093F9039F
:104280008093F803CA01B9010E94D8208091D70217
:10429000882309F0ACC18091DB029091DC02019788
:1042A00091F080910B0490910C048051974258F446
:1042B0008091E302882309F09AC10E94722681E06E
:1042C0008093E30294C180910B0490910C048A5472
:1042D000984308F01FC18091E302882329F08FEFF3
:1042E0000E9472261092E3020E948825882309F416
:1042F000CDC08091280490912904892B09F0C6C073
:1043000080912C048D3009F0C1C0AEE0B4E0EDE244
:10431000F4E001900D928150E1F720910F0430916B
:1043200010042936310508F0B1C0E0918903F0E0AE
:10433000EF57FC4F40814F5F4083F901E657FC4F38
:104340009081892F81608083992389F52A303105F6
:1043500028F48091F4038F5F8093F4038091F3033A
:104360008F5F8093F303F901E657FC4FE081F999E1
:10437000FECF1FBA265F3F4F32BD21BD2A503040CD
:10438000E0BD0FB6F894FA9AF99A0FBE2A303105BB
:1043900010F081E001C082E080930A04823021F4B1
:1043A00081E08093D90203C081E08093DA0280919A
:1043B000F603841760F4842F90E00E94BD1DE09105
:1043C0008903F0E0EF57FC4F80818093F603209142
:1043D0000F04309110048091E1029091E2022817BD
:1043E000390708F4C9019093E2028093E1028091B9
:1043F0001104909112040A9760F480916803882355
:1044000041F48091190490911A04009711F00E94D0
:104410002A1A8091F6038823C9F020911104309163
:1044200012048091DF029091E0022817390770F0A2
:104430002817390759F520910F0430911004809105
:104440007103909172032817390700F52091110428
:10445000309112048091DF029091E0022817390711
:1044600008F4C9019093E0028093DF028091130465
:10447000909114049093DC028093DB0280911504E8
:104480009091160490930C0480930B0480910D047A
:10449000882309F0ACC020910B0430910C0480916A
:1044A000DD029091DE028217930708F0A0C0809190
:1044B000DF029091E00290931F0480931E0480918C
:1044C000DB029091DC029093210480932004809180
:1044D000690390916A039093270480932604309394
:1044E0002304209322040E941726882309F47FC006
:1044F00081E080930D0480E06BE174E04DE00E9468
:104500008E2680917103909172039093E0028093C4
:10451000DF026DC010920C0410920B04E1E8F3E08E
:1045200020E08081281708F4282F319683E0E938AD
:10453000F807B9F72093F6038091890390E001967C
:1045400087709070809389033897E80FF91F108265
:10455000822F90E00E94BD1D8091DB029091DC02D1
:1045600001969093DC028093DB0280910D048823F6
:1045700081F4E091F703E33060F4EF5FE093F70339
:10458000F0E0EE0FFF1FEA51FD4F808191810E9404
:10459000BD2410920D048091DB029091DC028B30DF
:1045A0009105A8F08091E1029091E2029093E002DF
:1045B0008093DF0280917103909172039093E202E5
:1045C0008093E1021092DC021092DB0210C0099786
:1045D00071F48091DA02882319F481E08093DA0281
:1045E0008091D902882319F481E08093D9021F9128
:1045F0000F91FF90EF900895EF920F93CF93DF9379
:1046000064E670E080E090E00E9434282EE088E1CB
:1046100090E00FB6F894A895809360000FBE2093A9
:10462000600020E030E0F999FECF32BD21BDF89A5C
:1046300080B5F901E559FC4F80832F5F3F4F2A3049
:10464000310589F780916B03813009F45CC021E06A
:1046500020936B0384E080936C0383ED80936D0360
:1046600020936E0380936F032093700381E090E0AA
:10467000909372038093710389E690E090937403A2
:10468000809373031092F3031092F40389E6EAE82F
:10469000F3E0DF011D928A95E9F720938B038AE00E
:1046A00090E0FC01E058FC4FE081F999FECF1FBA81
:1046B00092BD81BDE0BD0FB6F894FA9AF99A0FBE8B
:1046C00001968337910569F78091F3038F5F80939B
:1046D000F3038091F4038F5F8093F40380E090E014
:1046E000FC01E559FC4FE081F999FECF1FBA92BD5C
:1046F00081BDE0BD0FB6F894FA9AF99A0FBE019603
:104700008A30910569F780917103909172039093BB
:104710001D0480931C048091730390917403909303
:1047200025048093240480916B0380931B04809163
:104730006E0390916C03943019F461E070E007C04F
:10474000993019F062E070E002C063E070E041E08F
:104750000E94D226C0917103D0917203D093E202DD
:10476000C093E102D093E002C093DF026091730333
:104770007091740382E790E10E940A2E6C9FC00141
:104780006D9F900D7C9F900D11248C58984D9093A7
:10479000DE028093DD02AAE8B3E040E090E020E092
:1047A00030E051E0BE01665F7F4FF999FECF265F92
:1047B0003F4F32BD21BD2A503040F89A80B58C93CE
:1047C0002C173D0781F45C93F901E657FC4FE0811B
:1047D000F999FECF1FBA72BD61BDE0BD0FB6F89466
:1047E000FA9AF99A0FBE8C91980F2A3008F4480F64
:1047F0002F5F3F4F119629363105B9F64093F403E8
:104800009093F3030E9426286093750370937603B8
:1048100080937703909378030E942628609379030E
:1048200070937A0380937B0390937C030E94411DD5
:1048300087E061E040E00E94201880917103909130
:1048400072030A9740F481E260E041E022E000E078
:10485000EE240E94E61C80917103909172030E94E5
:10486000C12B60E070E080E090E022E030E040E0CA
:1048700050E00E94A32B20E630E040E050E00E9490
:10488000DF2D6093DC0160E070E080E090E022E0EA
:1048900030E040E050E00E94A32B20E630E040E012
:1048A00050E00E94DF2D6093DD0160E070E080E069
:1048B00090E022E030E040E050E00E94A32B20E6B0
:1048C00030E040E050E00E94DF2D6093DE018091F7
:1048D000DC01882361F48091DD01882341F46623A3
:1048E00031F480E68093DC0180E38093DE018091E7
:1048F000DC0180930C028091DD0180930D02809198
:10490000DE0180930E0280E00E94C8280E94C12B25
:104910000E941E1ADF91CF910F91EF900895782F8A
:104920008CB581608CBD65B121E030E040E050E0A5
:104930000090E40204C0220F331F441F551F0A9445
:10494000D2F7522F822F8095862385B99EBD0DB454
:1049500007FEFDCF8EB57EBD0DB407FEFDCF4EB573
:10496000382F20E085B1582B55B98CB58E7F8CBD82
:1049700050E0422B532BCA010895E8980E948F24DF
:10498000E89A089580E090E00E948F248091780456
:10499000853009F054C080E090EB0E948F24282FCE
:1049A00080917A04882371F490917904992351F0CD
:1049B00080917A04E82FF0E0E65DFB4F90838F5FF3
:1049C00080937A0480917A04E82FF0E0E65DFB4F53
:1049D00020838F5F80937A0480912804909129042A
:1049E0008227282F22952827022E269526952025D6
:1049F000022E269520252770082E892F26950794AC
:104A00002795902D822706942795902582279093AD
:104A100029048093280480912C0420917A0490E04A
:104A2000049630E0821793072CF080917A04873443
:104A300008F46DC08DE092E80E948F240895809163
:104A4000780487FF2EC0E0912C04809178048F5F5A
:104A5000809378048150ED5FE80FF0E0E65DFB4F56
:104A6000E08180912804909129048E27282F229597
:104A70002827022E269526952025022E26952025CC
:104A80002770082E892F269507942795902D822729
:104A900006942795902582279093290480932804D3
:104AA00030C0809178048F5F809378048150833088
:104AB00019F184302CF4882399F0813009F516C05F
:104AC000893019F08A30E1F402C0EDE21AC0E091B9
:104AD000790490912C048EEF891B8093780411C087
:104AE0008091280490912904E82F0BC0809128041C
:104AF00090912904E92F05C08DE092E80E948F244F
:104B0000EAEA8E2F90E0805098440E948F24089506
:104B100080917804853009F042C080912C04209166
:104B20007A0490E0049630E08217930724F0809195
:104B30007A048734A0F184E08093780480912C0477
:104B4000833430F081E090E090932904809328042E
:104B500080912B0486FF12C080917704282F30E0CB
:104B6000C9018F7190704F9749F080912B0490E0AC
:104B7000822793278F719070892B89F48091280464
:104B800090912904892B09F044C0E0917504F091BB
:104B90007604309709F43DC080E0099546C08091C5
:104BA0007804843011F080E0089510922C048091F4
:104BB0002C0480937A048FEF9FEF909329048093C5
:104BC0002804209179042223D9F08227282F2295C6
:104BD0002827022E269526952025022E269520256B
:104BE0002770082E892F269507942795902D8227C8
:104BF0000694279590258227909329048093280472
:104C000085E0809378048DED92E80E948F2480E007
:104C100008958FEF9FEFAFEFBFEF809371049093F4
:104C20007204A0937304B093740481E0089580919A
:104C300078048530A1F480917A04882381F41EBC25
:104C40000DB407FEFDCF0EB400FC09C08DE092E864
:104C50000E948F2484E08093780481E0089580E0AE
:104C60000895982F86FD05C0907E809177048F71FE
:104C7000980F90932B04E0917504F091760430978F
:104C800011F081E009958FEF9FEF909329048093B5
:104C90002804809128049091290420917904822786
:104CA000282F22952827022E269526952025022E8C
:104CB000269520252770082E892F2695079427955D
:104CC000902D82270694279590258227909329047A
:104CD0008093280486E0809378048DE392E80E9414
:104CE0008F2408951F93182F87FF03C08DE092E84B
:104CF0000EC0992787FD9095956E0E94BD2485E092
:104D000092E80E94BD24112321F087E092E80E94DE
:104D1000BD2484E0809378041F9108951F93182F79
:104D200040932C042DE234E0C90150E00E9441146C
:104D3000812F0E9431261F91089525B181E090E0D6
:104D4000A0E0B0E00090E40204C0880F991FAA1F01
:104D5000BB1F0A94D2F7282B25B924B1822B84B922
:104D60008AE061E00E9429298AE061E00E94EA2845
:104D70008BE061E00E94EA288CE060E00E94EA2873
:104D80008DE061E00E94EA2880E58CBD8DB58160F0
:104D90008DBD82E060E00E94EA2882E061E00E942E
:104DA000292908951F93162F80937704409379043F
:104DB0000E949D2680E090E00E948F2485E092E88A
:104DC0000E948F2480E098EB02C080E090E00E9477
:104DD0008F2482E00E947D29892BB9F3812F90E0F6
:104DE00074E0880F991F7A95E1F7876C90680E94AC
:104DF0008F2480E496EA0E948F2486E096EC0E943D
:104E00008F2482EA94E90E948F248CEA92EC0E941B
:104E10008F2410917904112341F083E89AEC0E94C9
:104E20008F24812F90E09E6C06C08BE89AEC0E9444
:104E30008F248DE29EEC0E948F2483E894EC0E94E4
:104E40008F2480E598E90E948F2487E79CEC0E94DC
:104E50008F2480E090EE0E948F2480E098EC0E94E6
:104E60008F2489E490EC0E948F2484E0809378045E
:104E70008091770490E08F719070892B41F080E0F1
:104E800062EC74E240E050E00E944E2703C080E0F4
:104E90000E947127809177041F910895823000F558
:104EA000E82FF0E0EE0FFF1FE558FB4F71836083A2
:104EB000882319F08130A1F408C0809169008C7FAB
:104EC000842B80936900E89A089580916900440FCB
:104ED000551F440F551F837F842B80936900E99AE7
:104EE0000895823080F4882319F0813021F402C0C3
:104EF000E89801C0E998E82FF0E0EE0FFF1FE558B1
:104F0000FB4F1182108208951F920F920FB60F92DD
:104F100011242F933F934F935F936F937F938F93BE
:104F20009F93AF93BF93EF93FF9380917B049091F6
:104F30007C04892B29F0E0917B04F0917C04099595
:104F4000FF91EF91BF91AF919F918F917F916F9161
:104F50005F914F913F912F910F900FBE0F901F9037
:104F600018951F920F920FB60F9211242F933F9313
:104F70004F935F936F937F938F939F93AF93BF9361
:104F8000EF93FF9380917D0490917E04892B29F00B
:104F9000E0917D04F0917E040995FF91EF91BF911E
:104FA000AF919F918F917F916F915F914F913F91C1
:104FB0002F910F900FBE0F901F9018951F920F9278
:104FC0000FB60F9211242F933F938F939F93AF931C
:104FD000BF938091830490918404A0918504B09143
:104FE0008604309187040196A11DB11D232F2D5FEA
:104FF0002D3720F02D570196A11DB11D2093870458
:105000008093830490938404A0938504B0938604D2
:1050100080917F0490918004A0918104B0918204DA
:105020000196A11DB11D80937F0490938004A093ED
:105030008104B0938204BF91AF919F918F913F9172
:105040002F910F900FBE0F901F9018958FB7F89467
:10505000209183043091840440918504509186040A
:105060008FBFB901CA0108959B01AC017FB7F894C5
:1050700080917F0490918004A0918104B09182047A
:1050800066B5A89B05C06F3F19F00196A11DB11D23
:105090007FBFBA2FA92F982F8827860F911DA11D9A
:1050A000B11D62E0880F991FAA1FBB1F6A95D1F737
:1050B000BC012DC0FFB7F89480917F0490918004CB
:1050C000A0918104B0918204E6B5A89B05C0EF3F92
:1050D00019F00196A11DB11DFFBFBA2FA92F982F5E
:1050E00088278E0F911DA11DB11DE2E0880F991F29
:1050F000AA1FBB1FEA95D1F7861B970B885E9340CA
:10510000C8F2215030404040504068517C4F21153A
:1051100031054105510571F60895789484B5826092
:1051200084BD84B5816084BD85B5826085BD85B54B
:10513000816085BDEEE6F0E0808181608083E1E8FA
:10514000F0E0108280818260808380818160808332
:10515000E0E8F0E0808181608083E1EBF0E0808135
:1051600084608083E0EBF0E0808181608083EAE707
:10517000F0E0808184608083808182608083808190
:10518000816080838081806880831092C10008954F
:10519000982F8E3008F09E5097708091E50282958E
:1051A000880F880F807C892B80937C0080917A0007
:1051B000806480937A0080917A0086FDFCCF2091F4
:1051C000780040917900942F80E030E0282B392B33
:1051D000C9010895CF93DF93482F50E0CA01805D45
:1051E000984DFC013491445E584DFA018491882316
:1051F00069F190E0880F991FFC01E250F94DA591EB
:10520000B491FC01E85FF84DC591D491662351F447
:105210002FB7F8948C91932F909589238C93888144
:1052200089230BC0623061F42FB7F8948C91932FCF
:10523000909589238C938881832B88832FBF06C008
:105240009FB7F8948C91832B8C939FBFDF91CF9164
:105250000895482F50E0CA018C5B984DFC012491C1
:10526000CA01805D984DFC019491445E584DFA014D
:105270003491332309F440C0222351F1233071F0DB
:10528000243028F42130A1F0223011F514C026304A
:10529000B1F02730C1F02430D9F404C080918000EF
:1052A0008F7703C0809180008F7D8093800010C035
:1052B00084B58F7702C084B58F7D84BD09C080918D
:1052C000B0008F7703C08091B0008F7D8093B000D5
:1052D000E32FF0E0EE0FFF1FE85FF84DA591B491CA
:1052E0002FB7F894662321F48C919095892302C0FE
:1052F0008C91892B8C932FBF0895682F70E0CB0180
:105300008C5B984DFC012491CB01805D984DFC0194
:105310004491645E784DFB019491992319F420E047
:1053200030E03CC0222351F1233071F0243028F4C6
:105330002130A1F0223011F514C02630B1F0273011
:10534000C1F02430D9F404C0809180008F7703C06D
:10535000809180008F7D8093800010C084B58F770E
:1053600002C084B58F7D84BD09C08091B0008F7765
:1053700003C08091B0008F7D8093B000892F90E0B2
:10538000880F991F8E5E984DFC01A591B4918C9168
:1053900020E030E0842311F021E030E0C9010895DD
:1053A00008951F920F920FB60F9211242F933F93DF
:1053B0004F938F939F93EF93FF934091C60020915B
:1053C000C8043091C9042F5F3F4F2F733070809114
:1053D000CA049091CB042817390759F0E091C8040A
:1053E000F091C904E857FB4F40833093C9042093E0
:1053F000C804FF91EF919F918F914F913F912F9111
:105400000F900FBE0F901F901895E0911C05F09122
:105410001D05E05CFF4F8191919120813181821BBC
:10542000930B8F739070892B11F00E94D0290895EF
:105430001F920F920FB60F9211242F933F938F93C9
:105440009F93EF93FF9320910C0530910D05809170
:105450000E0590910F052817390731F48091C1008E
:105460008F7D8093C10014C0E0910E05F0910F056F
:10547000E453FB4F208180910E0590910F0501961A
:105480008F73907090930F0580930E052093C60044
:10549000FF91EF919F918F913F912F910F900FBEB0
:1054A0000F901F901895DC011C96ED91FC911D97B3
:1054B000E05CFF4F2191319180819181281B390B54
:1054C0002F733070C9010895DC011C96ED91FC9199
:1054D0001D97E05CFF4F20813181E054F040DF01F7
:1054E000AE5BBF4F8D919C9111972817390719F426
:1054F0002FEF3FEF07C08D919C91E80FF91F80813E
:10550000282F30E0C9010895DC011C96ED91FC9133
:105510001D97E05CFF4F20813181E054F040DF01B6
:10552000AE5BBF4F8D919C9111972817390719F4E5
:105530002FEF3FEF10C08D919C911197E80FF91F4D
:1055400020818D919C91119701968F739070119687
:105550009C938E9330E0C9010895FC018685978560
:10556000DC01A05CBF4FFC01EE5BFF4F2D913C9135
:1055700011978081918128173907C1F70895CF933A
:10558000DF93EC01EE85FF85E05CFF4F20813181E8
:10559000E054F0402F5F3F4F2F733070DF01AE5B60
:1055A000BF4F8D919C91119728173907D1F3E05C7B
:1055B000FF4F80819181E054F040E80FF91F608334
:1055C000EE85FF85E05CFF4F31832083EE89FF8904
:1055D000208181E090E00D8C02C0880F991F0A9411
:1055E000E2F7282B208381E090E0DF91CF910895AE
:1055F000109213051092120588EE93E0A0E0B0E03F
:105600008093140590931505A0931605B093170584
:1056100082EF92E0909311058093100588E894E062
:1056200090931D0580931C058CEC94E090931F05CE
:1056300080931E0585EC90E09093210580932005D2
:1056400084EC90E0909323058093220580EC90E019
:10565000909325058093240581EC90E09093270595
:105660008093260586EC90E0909329058093280589
:1056700084E080932A0583E080932B0587E0809364
:105680002C0585E080932D0581E080932E050895FB
:10569000CF93DF930E948D280E94FC22C5E0DAE2BE
:1056A0000E94FB202097E1F30E94052AF9CFCF92B8
:1056B000DF92EF92FF920F931F93CF93DF937C01C2
:1056C0006B018A01C0E0D0E00FC0D6016D916D0181
:1056D000D701ED91FC910190F081E02DC701099572
:1056E000C80FD91F015010400115110571F7CE01E7
:1056F000DF91CF911F910F91FF90EF90DF90CF90AE
:105700000895EF92FF920F931F937B018C01611517
:1057100071058105910529F420E030E040E050E07A
:105720000BC00E942A14A80197010E94402EAC01D0
:10573000CB01DA019C01AD01B901CA011F910F91A2
:10574000FF90EF900895EF92FF920F931F937B01CC
:105750008C01621773078407950764F4261B370BC7
:10576000480B590BCA01B9010E94812BE60EF71EA6
:10577000081F191FB701C8011F910F91FF90EF90EB
:105780000895009729F0BC0180E090E00E942F145A
:1057900008955058BB27AA270ED070C161D130F0B0
:1057A00066D120F031F49F3F11F41EF456C10EF47F
:1057B000E095E7FB4CC1E92F72D180F3BA1762077D
:1057C00073078407950718F071F49EF58AC10EF4EB
:1057D000E0950B2EBA2FA02D0B01B90190010C0101
:1057E000CA01A0011124FF27591B99F0593F50F419
:1057F000503E68F11A16F040A22F232F342F442771
:10580000585FF3CF469537952795A795F040539568
:10581000C9F77EF41F16BA0B620B730B840BBAF038
:105820009150A1F0FF0FBB1F661F771F881FC2F7A3
:105830000EC0BA0F621F731F841F48F487957795B7
:105840006795B795F7959E3F08F0B3CF9395880F6E
:1058500008F09927EE0F979587950895D4D008F40E
:1058600081E008950CD00AC102D140F0F9D030F0A7
:1058700021F45F3F19F0EBC0511134C1EEC00FD1DC
:1058800098F39923C9F35523B1F3951B550BBB2707
:10589000AA2762177307840738F09F5F5F4F220FB4
:1058A000331F441FAA1FA9F333D00E2E3AF0E0E8AD
:1058B00030D091505040E695001CCAF729D0FE2FF9
:1058C00027D0660F771F881FBB1F2617370748078B
:1058D000AB07B0E809F0BB0B802DBF01FF27935841
:1058E0005F4F2AF09E3F510568F0B1C0FBC05F3F9B
:1058F000ECF3983EDCF3869577956795B795F79529
:105900009F5FC9F7880F911D9695879597F9089520
:10591000E1E0660F771F881FBB1F621773078407BC
:10592000BA0720F0621B730B840BBA0BEE1F88F7CB
:10593000E0950895BCD088F09F5790F0B92F992733
:10594000B751A0F0D1F0660F771F881F991F1AF08A
:10595000BA95C9F712C0B13081F0C3D0B1E0089553
:10596000C0C0672F782F8827B85F39F0B93FCCF3D4
:10597000869577956795B395D9F73EF49095809580
:10598000709561957F4F8F4F9F4F0895E89409C0A0
:1059900097FB3EF490958095709561957F4F8F4F62
:1059A0009F4F9923A9F0F92F96E9BB279395F69578
:1059B000879577956795B795F111F8CFFAF4BB0FF6
:1059C00011F460FF1BC06F5F7F4F8F4F9F4F16C05A
:1059D000882311F096E911C0772321F09EE8872FE4
:1059E000762F05C0662371F096E8862F70E060E0A0
:1059F0002AF09A95660F771F881FDAF7880F969519
:105A0000879597F90895990F0008550FAA0BE0E8BC
:105A1000FEEF16161706E807F907C0F01216130670
:105A2000E407F50798F0621B730B840B950B39F4B0
:105A30000A2661F0232B242B252B21F408950A2616
:105A400009F4A140A6958FEF811D811D089597F956
:105A50009F6780E870E060E008959FEF80EC089514
:105A600000240A941616170618060906089500243D
:105A70000A9412161306140605060895092E0394B7
:105A8000000C11F4882352F0BB0F40F4BF2B11F42B
:105A900060FF04C06F5F7F4F8F4F9F4F089557FD8A
:105AA0009058440F551F59F05F3F71F04795880F8C
:105AB00097FB991F61F09F3F79F087950895121623
:105AC00013061406551FF2CF4695F1DF08C01616CF
:105AD00017061806991FF1CF869571056105089480
