:100000000C94AD130C9457270C9484270C94D5139F
:100010000C94D5130C94D5130C94D5130C94641D27
:100020000C94D5130C94D5130C94D5130C94D513B0
:100030000C94D5130C94D5130C94D5130C94D513A0
:100040000C94B1270C94D5130C94A4290C94EB298F
:100050000C94D5130C94341A0C94D5130C94D5131A
:100060000C94D5130C94D513000000000000000080
:10007000000000005A001E00000000000000000008
:1000800000005A000000000000001E000000001EDA
:100090005A00001E0000001E0000000000005A0070
:1000A000000000000000001E00001E005A000000BA
:1000B0001E001E000000000000005A0000000000AA
:1000C000000000001E1E00005A000000001E00007C
:1000D0000000000000005A000000000000000000C6
:1000E0001E1E00005A0000001E001E00000000003E
:1000F00000005A00000000000000001E00001E006A
:100100005A00001E0000001E0000000000005A00FF
:100110000000000000001E000000001E5A001E002B
:10012000000000000000000000005A000000000075
:1001300000000000000000005A0000000000000065
:100140000000000000005A00001E00000000001E19
:10015000000000005A00000000001E000000000027
:100160001E005A000000001E00000000001E0000DB
:100170005A001E00000000001E00000000005A008F
:1001800000000000001E00000000001E5A000000D9
:100190001E00000000001E0000005A0000000000C9
:1001A0001E00000000001E005A00001E000000009B
:1001B000001E000000005A000000001E00000000A9
:1001C000001E00005A0000000000001E0000000099
:1001D000001E5A0000001E00000000001E0000006B
:1001E0005A001E00000000001E00000000005A001F
:1001F0000000000000000000000000005A000000A5
:10020000000000000000000000005A00001E000076
:1002100000000000000000005A0000000000000084
:100220000000001E00005A00000000000000000056
:100230001E0000005A0000000000001E0000000028
:1002400000005A000000001E000000000000000036
:100250005A00000000000000000000001E005A00CC
:10026000000000000000001E000000005A001E00F8
:10027000000000000000000000005A000000000024
:100280001E000000000000005A00000000000000F6
:1002900000000000001E5A0000001E0000000000C8
:1002A000000000005A000000000000001E000000D6
:1002B00000005A00000000000000000000000000E4
:1002C0005A000000000000000000000000005A007A
:1002D00000000000001E00000000001E5A00000088
:1002E00000001E00000000001E005A000000001E5A
:1002F00000000000001E00005A0000001E00000068
:1003000000001E0000005A00001E00000000001E39
:10031000000000005A001E00000000001E00000047
:1003200000005A0000000000001E00000000001E37
:100330005A00000000001E00000000001E005A00CD
:100340000000001E00000000001E00005A00000017
:100350001E00000000001E0000005A00001E0000E9
:100360000000001E000000005A001E0000000000F7
:100370001E00000000005A00000000000000000005
:10038000000000005A000000000000000000000013
:1003900000005A001E0000000000000000000000E5
:1003A0005A000000001E00000000000000005A007B
:1003B0000000000000001E00000000005A000000C5
:1003C000000000000000001E00005A00001E000097
:1003D00000000000000000005A00000000001E00A5
:1003E0000000000000005A00000000000000001E95
:1003F000000000005A0000000000000000000000A3
:100400001E005A0000001E00000000000000000056
:100410005A0000000000001E0000000000005A000A
:1004200000000000000000001E0000005A00000054
:100430000000000000000000001E5A000000001E26
:1004400000000000000000005A001E000000000034
:100450000000000000005A00000000000000000042
:10046000000000005A000000000000000000000032
:1004700000005A001E000000001E000000000000E6
:100480005A00000000000000000000001E1E5A007C
:10049000000000001E1E0000000000005A000000C6
:1004A000000000000000001E1E005A000000001E98
:1004B0001E000000000000005A00000000000000C4
:1004C00000001E1E00005A0000001E1E000000005A
:1004D000000000005A00000000000000001E1E0086
:1004E00000005A00001E1E00000000000000000076
:1004F0005A000000000000001E1E000000005A000C
:100500001E1E000000000000000000005A00000055
:10051000000000001E000000001E5A000000000045
:1005200000000000000000005A0000000000000071
:100530000000000000005A001E00000000001E0025
:100540000000001E5A000000001E000000001E1ED9
:1005500000005A001E00000000001E000000001EE7
:100560005A000000001E000000001E1E00005A007D
:100570001E00000000001E000000001E5A000000C7
:10058000001E000000001E1E00005A0000000000B7
:100590001E1E000000001E005A00001E1E0000006B
:1005A000001E000000005A00000000001E1E000097
:1005B00000001E005A00001E1E000000001E000069
:1005C00000005A00000000001E1E000000001E0077
:1005D0005A00001E1E000000001E000000005A000D
:1005E0000000000000000000000000005A000000B1
:1005F000000000000000000000005A001E00000083
:1006000000000000000000005A001E000000000072
:1006100000000000001E5A0000000000001E000044
:100620000000001E5A0000000000001E0000000034
:100630001E005A00000000001E00000000001E0006
:100640005A00000000001E000000001E00005A00BA
:100650000000001E00000000001E00005A00000004
:10066000001E000000001E0000005A0000001E00D6
:10067000000000001E0000005A0000001E000000E4
:10068000001E000000005A00001E00000000001EB6
:10069000000000005A00001E000000001E000000C4
:1006A00000005A001E00000000001E0000000000B4
:1006B0005A001E00000000000000000000005A0068
:1006C0000000000000000000000000005A000000D0
:1006D000000000000000000000005A001E000000A2
:1006E00000000000000000005A001E1E0000000074
:1006F0000000000000005A00001E1E000000000064
:10070000000000005A0000001E1E00000000000053
:1007100000005A000000001E1E0000000000000043
:100720005A00000000001E1E0000000000005A00D9
:1007300000000000001E1E00000000005A00000023
:10074000000000001E1E000000005A000000000013
:100750000000001E1E0000005A0000000000000003
:1007600000001E1E00005A000000000000000000F3
:10077000001E1E005A0000000000000000000000E3
:100780001E1E5A0000000000000000000000001EB5
:100790005A000000000000000000000000005A00A5
:1007A0000000000000000000000000005A000000EF
:1007B00000001E000000000000005A0000000000C1
:1007C0001E000000001E1E005A0000000000000075
:1007D0001E1E000000005A00001E00000000000065
:1007E000000000005A0000000000000000000000AF
:1007F00000005A0000001E00000000000000000081
:100800005A00000000000000001E1E0000005A00F8
:10081000000000000000000000001E1E5A00000042
:100820000000001E0000000000005A000000000050
:1008300000000000000000005A000000000000005E
:100840000000000000005A001E0000000000000030
:10085000000000005A001E00000000000000000020
:10086000001E5A0000000000001E00000000001ED4
:100870005A001E000000001E000000001E005A006A
:100880001E0000001E001E0000001E005A00001E78
:1008900000001E001E00001E00005A00001E001E68
:1008A0000000001E001E00005A001E001E1E000058
:1008B000001E000000005A001E001E000000000084
:1008C0001E00001E5A000000001E001E00001E0038
:1008D000001E5A000000001E001E000000001E0046
:1008E0005A001E0000001E00000000001E005A00FA
:1008F0001E0000001E001E00001E00005A00001E08
:10090000001E00001E00001E00005A00001E001EF7
:100910000000001E000000005A0000001E00000041
:10092000001E000000005A0000001E000000000031
:100930001E0000005A000000001E000000001E0003
:1009400000005A000000001E00000000000000002F
:100950005A000000000000000000000000005A00E3
:10096000000000000000000000000000C8000000BF
:1009700000000000000000001E00C8000000000091
:100980001E1E000000001E00C800000000001E1E09
:100990000000001E1E1EC8001E00001E1E1E0000BD
:1009A000001E001EC8001E00001E00001E001E1EAD
:1009B000001EC8001E1E1E1E00001E001E0000009D
:1009C000C800001E1E0000001E1E1E000000C80001
:1009D000001E1E000000001E00000000C8000000F5
:1009E00000000000001E00000000C8000000000021
:1009F0000000000000000000C8000000000000002F
:100A00000000000000002D001E1E0000001E1E1E23
:100A10000000001E2D0000001E1E1E0000001E1EF5
:100A20001E002D001E1E0000001E1E1E0000001EC7
:100A30002D0000001E1E1E0000001E1E1E002D00A8
:100A40001E1E0000001E1E1E0000001E2D000000C5
:100A50001E1E1E0000001E1E1E002D001E1E000079
:100A6000001E1E1E0000001E2D0000001E1E1E0087
:100A700000001E1E1E002D001E1E0000001E1E1E59
:100A80000000001E2D0000001E1E1E0000001E1E85
:100A90001E002D001E1E0000001E1E1E0000001E57
:100AA0002D0000001E1E1E0000001E1E1E002D0038
:100AB0000000000000000000000000002D00000009
:100AC000000000000000000000001E000000000008
:100AD000000000001E0000001E0000001E000000BC
:100AE00000001E0000001E0000001E000000001E8E
:100AF0001E0000001E00001E1E000000001E1E0042
:100B000000001E00001E1E0000001E1E1E00000031
:100B10001E001E1E1E0000001E1E1E0000001E00E5
:100B20001E1E1E0000001E1E1E00001E1E001E1E99
:100B30001E00001E1E1E1E00001E1E001E1E1E0089
:100B4000001E1E1E1E001E1E1E001E1E1E001E1E3D
:100B50001E1E1E001E1E1E001E1E1E001E1E1E1E0F
:100B6000001E1E1E1E001E1E001E1E1E1E1E001E1D
:100B70001E1E1E001E1E001E1E1E1E001E1E1E1EEF
:100B80001E001E001E1E1E1E1E001E1E1E1E1E00FD
:100B90001E001E1E1E1E001E1E1E1E1E1E00001EED
:100BA0001E1E1E1E001E1E1E1E1E1E00001E1E1EBF
:100BB0001E1E1E1E1E1E1E001E001E1E1E1E1E00AF
:100BC0001E1E1E1E1E001E001E1E1E1E1E001E1E9F
:100BD0001E1E00001E001E1E1E1E00001E1E1E1ECB
:100BE00000001E001E1E1E1E00001E1E1E00000015
:100BF0001E001E1E1E0000001E1E1E0000001E0005
:100C00001E1E1E0000001E1E000000001E001E1EF4
:100C1000000000001E1E000000001E001E1E00003E
:100C200000001E00000000001E001E00000000006A
:100C30001E00000000001E001E000000000000005A
:100C4000000000001E000000000000000000000086
:100C500000001E0000000000000000000000000076
:100C60003C000000001E00000000000000003C00EE
:100C700000001E000000000000001E003C00001EDE
:100C80001E0000000000001E00003C001E1E0000B0
:100C9000001E00001E0000003C0000001E1E001E82
:100CA000001E00001E003C001E00001E1E001E0054
:100CB0001E00001E3C00001E001E1E00001E001E26
:100CC000001E3C00001E1E1E000000001E1E1E0016
:100CD0003C0000001E001E001E001E1E1E003C00E8
:100CE0001E1E001E001E0000001E001E3C001E1ED8
:100CF0000000001E1E001E001E003C0000001E0022
:100D00001E00001E1E1E001E3C001E001E1E1E0099
:100D10001E00001E00003C00001E1E001E1E001EC5
:100D20000000001E3C00001E001E1E1E1E001E00B5
:100D300000003C001E1E001E001E0000001E1E00C3
:100D40003C001E1E001E001E00001E00001E3C0077
:100D5000001E001E0000001E001E001E3C001E00A3
:100D60001E00001E000000001E003C0000001E00CF
:100D700000000000001E1E003C0000000000001EDD
:100D800000001E0000003C00000000000000000009
:100D9000001E00003C0000000000000000000000F9
:100DA00000003C0000000000000000000000000007
:100DB000C8001E1E1E1E1E1E000000000000C800EF
:100DC0000000000000001E1E1E1E1E1EC8001E1E6B
:100DD0001E1E1E1E000000000000C80000000000D3
:100DE00000001E1E1E1E1E1EC8001E1E1E1E1E1ED3
:100DF000000000000000C8000000000000001E1EEF
:100E00001E1E1E1EC8001E1E1E1E1E1E00000000EE
:100E10000000C8000000000000001E1E1E1E1E1E56
:100E2000C800000000000000000000000000C80032
:100E30000000000000000000000000005A00001E3A
:100E400000000000001E000000005A00001E00000C
:100E50001E00001E00001E005A00001E1E001E0084
:100E6000001E1E001E005A001E1E1E001E001E1E1A
:100E70001E001E005A001E1E1E1E1E001E1E1E1ECE
:100E80001E005A001E1E1E1E1E1E1E1E1E1E1E1E82
:100E90005A001E001E1E1E1E1E001E1E1E1E5A0072
:100EA0001E001E001E1E1E001E001E1E5A001E00DA
:100EB00000001E1E1E0000001E1E5A001E00000024
:100EC0001E001E0000001E005A00000000001E0050
:100ED000000000001E005A0000000000000000009A
:100EE000000000005A0000000000000000000000A8
:100EF00000005A001E00000000000000000000007A
:100F00005A001E00000000001E000000001E5A00D3
:100F10001E1E0000001E1E000000001E5A00001EC3
:100F20000000001E1E1E00001E1E5A00001E1E0095
:100F30001E1E001E00001E005A001E001E001E0085
:100F4000001E1E1E1E005A001E001E1E1E001E0039
:100F50001E1E001E5A001E1E001E001E1E001E1E0B
:100F6000001E5A00001E001E001E1E1E00001E1E37
:100F70005A00001E1E001E1E001E00001E005A0009
:100F80001E001E001E00001E1E1E1E005A001E0017
:100F90001E1E1E001E001E1E001E5A001E1E001ECB
:100FA000001E1E001E1E001E5A00001E001E001EF7
:100FB0001E1E00001E1E5A00001E1E001E1E001EC9
:100FC00000001E005A0000001E001E00001E1E1E13
:100FD0001E005A0000001E1E1E0000001E1E000003
:100FE0005A000000001E000000001E1E00005A00F3
:100FF0000000001E00000000000000005A00000079
:10100000000000000000000000005A000000000086
:1010100000000000000000005A001E000000000058
:101020000000000000005A000000000000001E0048
:101030000000001E5A00001E0000001E00000000FC
:1010400000005A001E0000000000001E00001E00EC
:101050005A0000001E001E001E000000001E5A0064
:10106000001E0000001E00001E1E00005A001E0090
:10107000001E0000001E00001E005A0000001E009E
:101080001E001E000000001E5A00001E0000001E70
:1010900000001E1E00005A001E00001E0000001E60
:1010A00000001E005A0000001E001E001E0000006E
:1010B000001E5A00001E0000001E00001E1E000040
:1010C0005A001E00001E0000001E00001E005A00F4
:1010D00000001E001E001E000000001E5A00001E20
:1010E0000000001E00001E1E00005A000000001E2E
:1010F0000000001E00001E005A0000001E001E001E
:101100000000000000005A00000000000000000085
:101110001E1E00005A000000001E0000000000001B
:1011200000005A0000000000000000000000000065
:101130005A000000000000000000000000005A00FB
:101140001E1E1E1E1E1E1E1E1E1E1E1E5A001E1EA1
:101150001E1E1E1E1E1E1E1E1E1E5A001E1E1E1E91
:101160001E1E1E1E1E1E1E1E5A001E1E1E1E1E1E81
:101170001E1E1E1E1E1E5A001E1E1E1E1E1E1E1E71
:101180001E1E1E1E5A001E001E1E1E1E1E1E1E1E7F
:101190001E1E5A001E001E1E1E1E1E1E1E001E1E8D
:1011A0005A0000001E1E1E1E1E1E1E001E1E5A007D
:1011B0000000001E1E1E1E1E1E001E1E5A000000E5
:1011C000001E1E1E1E1E1E001E005A000000001ED5
:1011D000001E1E1E1E001E005A000000001E001EE3
:1011E0001E1E00001E005A000000001E001E001EF1
:1011F00000001E005A000000001E0000001E00003B
:101200001E005A00000000000000001E00001E002A
:101210005A00000000000000000000001E005A00FC
:101220000000000000000000000000005A000F084D
:10123000080F080808080808080814000808080823
:1012400008080F080F0F080F1400080F0F080F0FE2
:101250000808080808081400080808080808080F03
:1012600008080F081400080F0F080F0F08080808D7
:10127000080814000808080808080F080F0F080FCE
:1012800014000F08080F08080F08080F08085A0074
:1012900008080F08080F08080F08080F5A00080F61
:1012A00008080F08080F08080F085A000F08080858
:1012B00008080F08080808085A000808080F080856
:1012C0000808080F08085A00080F08080808080F3F
:1012D000080808085A00080808080F08080808083D
:1012E0000F085A0008080F08080808080F0808081F
:1012F0005A0008080808080F08080808080F5A00CC
:101300000808080F08080808080F08085A000F08FE
:10131000080808080F08080808085A0008080808FC
:101320000F08080808080F085A00080F08080808DE
:10133000080F080808085A0008080808080F0808D5
:101340000808080F5A0008080F08080808080F08BE
:1013500008085A000F080F080F08080808080808AE
:101360005A00080F080F080F0808080808085A0054
:10137000080808080808080F080F080F5A0008088E
:10138000080808080F080F080F085A000F0F080F69
:101390000F080F08080F08085A00080F08080F0860
:1013A0000F0F080F0F085A00080F0F080F0F080F34
:1013B00008080F085A0008080F08080F080F0F0840
:1013C0000F0F5A000F080F0F080F08080F08080F1B
:1013D0005A0008080F08080F080F0F080F0F5A00CF
:1013E000080F0F080F0F080F08080F085A00080F02
:1013F00008080F080F0F080F0F085A000F080808F9
:1014000008080808080808085A0008080808080812
:101410000F080808080F5A00080F0808080F0808E6
:10142000080808085A00080808080808080F0808EB
:101430000F085A0008080F080F08080808080808CD
:101440005A0008080808080808080F0F08085A007A
:101450000808080F08080808080808085A000808BB
:101460000808080808080F0F08085A0008080F089D
:101470000F080808080808085A000808080808089B
:10148000080F08080F085A00080F0808080F080876
:10149000080808085A000808080808080F0808087B
:1014A000080F5A000F08080F08080808080808085D
:1014B0005A000808080808080F080F0F080F5A00FC
:1014C000080808080808080F08080F085A00080F3D
:1014D0000F080F0F0808080808085A00080808082D
:1014E0000808080F08080F085A0008080808080824
:1014F0000F080F0F080F5A000F08080808080F08F8
:101500000808080F5A000808080F080808080F0FF5
:1015100008085A000F08080808080F080808080FEC
:101520005A000808080F080808080F0F08085A0092
:10153000080F0F080808080F080808085A000808CC
:1015400008080F0F080808080F085A00080F0F08AE
:101550000808080F080808085A00080808080F0FAC
:10156000080808080F085A000F08080808080808A3
:10157000080808085A000808080808080F0808089A
:1015800008085A00080F080808080808080808088A
:101590005A00080808080808080F080808085A0030
:1015A00008080F0808080808080808085A0008086A
:1015B0000808080808080F0808085A000808080F53
:1015C00008080808080808085A000F08080808084A
:1015D0000808080808085A00080808080808080841
:1015E0000808080F5A0008080808080F0808080823
:1015F00008085A00080808080808080808080F081A
:101600005A00080808080F080808080808085A00BF
:101610000808080808080808080F08085A000808F9
:10162000080F08080808080808085A0008080808E9
:1016300008080F08080F08085A00080808080808D2
:101640000808080808085A000808080808080F08C9
:10165000080F08085A0008080808080808080808B9
:1016600008085A00080808080808080F08080F08A2
:101670005A000808080808080808080808085A0056
:10168000080808080808080F08080F085A00080882
:10169000080808080808080808085A000808080880
:1016A000080808080F08080F5A0008080808080862
:1016B0000808080808085A00080808080808080860
:1016C0000F08080F5A000808080808080808080842
:1016D00008085A00000000000000000000000000A0
:1016E0001E00FF0000FF00000000000000001E00C0
:1016F000FF0000FF0000FF0000FF00001E00FFFFD2
:1017000000FFFF00FF0000FF00001E00FFFF00FFC2
:10171000FF00FFFF00FFFF001E0000FFFF00FFFFB4
:10172000FFFF00FFFF001E0000FFFF00FFFF00FFA4
:10173000FF00FFFF1E00FF00FFFF00FF00FFFF0094
:10174000FFFF1E00FF00FFFF00FFFF00FFFF00FF85
:101750001E00FFFF00FFFF00FF00FFFF00FF1E0055
:10176000FFFF00FFFF00FFFF00FFFF001E0000FF64
:10177000FF00FFFFFFFF00FFFF001E0000FFFF0054
:10178000FFFF00FFFF00FFFF1E00FF00FFFF00FF45
:1017900000FFFF00FFFF1E00FF00FFFF00FFFF0034
:1017A000FFFF00FF1E00FFFF00FFFF00FF00FFFF25
:1017B00000FF1E00FFFF00FFFF00FFFF00FFFF0014
:1017C0001E0000FFFF00FFFFFFFF00FFFF001E00E5
:1017D00000FFFF00FFFF00FFFF00FFFF1E00FF00F4
:1017E000FFFF00FF00FFFF00FFFF1E00FF00FFFFE5
:1017F00000FFFF00FFFF00FF1E00FFFF00FFFF00D4
:10180000FF00FFFF00FF1E00FFFF00FFFF00FFFFC4
:1018100000FFFF001E0000FFFF00FFFFFFFF00FFB3
:10182000FF001E0000FFFF00FFFF00FFFF00FFFFA3
:101830001E00FF00FFFF00FF00FFFF00FFFF1E0074
:10184000FF00FFFF00FFFF00FFFF00FF1E00FFFF84
:1018500000FFFF00FF00FFFF00FF1E00FFFF00FF73
:10186000FF00FFFF00FFFF001E0000FFFF00FFFF63
:10187000FFFF00FFFF001E0000FFFF00FFFF00FF53
:10188000FF00FFFF1E00FF00FFFF00FF00FFFF0043
:10189000FFFF1E00FF00FFFF00FFFF00FFFF00FF34
:1018A0001E00FFFF00FFFF00FF00FFFF00FF1E0004
:1018B000FFFF00FFFF00FFFF00FFFF001E0000FF13
:1018C000FF00FFFFFFFF00FFFF001E0000FFFF0003
:1018D000FFFF00FFFF00FFFF1E00FF00FFFF00FFF4
:1018E00000FFFF00FFFF1E00FF00FFFF00FFFF00E3
:1018F000FFFF00FF1E00FFFF00FFFF00FF00FFFFD4
:1019000000FF1E00FFFF00FFFF00FFFF00FFFF00C2
:101910001E0000FFFF00FFFFFFFF00FFFF001E0093
:1019200000FFFF00FFFF00FFFF00FFFF1E00FF00A2
:10193000FFFF00FF00FFFF00FFFF1E00FF00FFFF93
:1019400000FFFF00FFFF00FF1E00FFFF00FFFF0082
:10195000FF00FFFF00FF1E00FFFF00FFFF00FFFF73
:1019600000FFFF001E0000FFFF00FFFFFFFF00FF62
:10197000FF001E0000FFFF00FFFF00FFFF00FFFF52
:101980001E00FF00FFFF00FF00FFFF00FFFF1E0023
:10199000FF00FFFF00FFFF00FFFF00FF1E00FFFF33
:1019A00000FFFF00FF00FFFF00FF1E00FFFF00FF22
:1019B000FF00FFFF00FFFF001E0000FFFF00FFFF12
:1019C000FFFF00FFFF001E0000FFFF00FFFF00FF02
:1019D000FF00FFFF1E00FF00FFFF00FF00FFFF00F2
:1019E000FFFF1E00FF00FFFF00FFFF00FFFF00FFE3
:1019F0001E00FFFF00FFFF00FF00FFFF00FF1E00B3
:101A0000FFFF00FFFF00FFFF00FFFF001E0000FFC1
:101A1000FF00FFFFFFFF00FFFF001E0000FFFF00B1
:101A2000FFFF00FFFF00FFFF1E00FF00FFFF00FFA2
:101A300000FFFF00FFFF1E00FF00FFFF00FFFF0091
:101A4000FFFF00FF1E00FFFF00FFFF00FF00FFFF82
:101A500000FF1E00FFFF00FFFF00FFFF00FFFF0071
:101A60001E0000FFFF00FFFFFFFF00FFFF001E0042
:101A700000FFFF00FFFF00FFFF00FFFF1E00FF0051
:101A8000FFFF00FF00FFFF00FFFF1E00FF00FFFF42
:101A900000FFFF00FFFF00FF1E00FFFF00FFFF0031
:101AA000FF00FFFF00FF1E00FFFF00FFFF00FFFF22
:101AB00000FFFF001E0000FFFF00FFFFFFFF00FF11
:101AC000FF001E0000FFFF00FFFF00FFFF00FFFF01
:101AD0001E00FF00FFFF00FF00FFFF00FFFF1E00D2
:101AE000FF00FFFF00FFFF00FFFF00FF1E00FFFFE2
:101AF00000FFFF00FF00FFFF00FF1E00FFFF00FFD1
:101B0000FF00FFFF00FFFF001E0000FFFF00FFFFC0
:101B1000FFFF00FFFF001E0000FFFF00FFFF00FFB0
:101B2000FF00FFFF1E00FF00FFFF00FF00FFFF00A0
:101B3000FFFF1E00FF00FFFF00FFFF00FFFF00FF91
:101B40001E00FFFF00FFFF00FF00FFFF00FF1E0061
:101B5000FFFF00FFFF00FFFF00FFFF001E0000FF70
:101B6000FF00FFFFFFFF00FFFF001E0000FFFF0060
:101B7000FFFF00FFFF00FFFF1E00FF00FFFF00FF51
:101B800000FFFF00FFFF1E00FF00FFFF00FFFF0040
:101B9000FFFF00FF1E00FFFF00FFFF00FF00FFFF31
:101BA00000FF1E00FFFF00FFFF00FFFF00FFFF0020
:101BB0001E0000FFFF00FFFFFFFF00FFFF001E00F1
:101BC00000FFFF00FFFF00FFFF00FFFF1E00FF0000
:101BD000FFFF00FF00FFFF00FFFF1E00FF00FFFFF1
:101BE00000FFFF00FFFF00FF1E00FFFF00FFFF00E0
:101BF000FF00FFFF00FF1E00FFFF00FFFF00FFFFD1
:101C000000FFFF001E0000FFFF00FFFFFFFF00FFBF
:101C1000FF001E0000FFFF00FFFF00FFFF00FFFFAF
:101C20001E00FF00FFFF00FF00FFFF00FFFF1E0080
:101C3000FF00FFFF00FFFF00FFFF00FF1E00FFFF90
:101C400000FFFF00FF00FFFF00FF1E00FFFF00FF7F
:101C5000FF00FFFF00FFFF001E0000FFFF00FFFF6F
:101C6000FFFF00FFFF001E0000FFFF00FFFF00FF5F
:101C7000FF00FFFF1E00FF00FFFF00FF00FFFF004F
:101C8000FFFF1E00FF00FFFF00FFFF00FFFF00FF40
:101C90001E00FFFF00FFFF00FF00FFFF00FF1E0010
:101CA000FFFF00FFFF00FFFF00FFFF001E0000FF1F
:101CB000FF00FFFFFFFF00FFFF001E0000FFFF000F
:101CC000FFFF00FFFF00FFFF1E00FF00FFFF00FF00
:101CD00000FFFF00FFFF1E00FF00FFFF00FFFF00EF
:101CE000FFFF00FF1E00FFFF00FFFF00FF00FFFFE0
:101CF00000FF1E00FFFF00FFFF00FFFF00FFFF00CF
:101D00001E0000FFFF00FFFFFFFF00FFFF001E009F
:101D100000FFFF00FFFF00FFFF00FFFF1E00FF00AE
:101D2000FFFF00FF00FFFF00FFFF1E00FF00FFFF9F
:101D300000FF0000FF0000FF1E00FF0000FF00008A
:101D40000000FF0000FF1E00FF0000FF0000000079
:101D5000000000001E000000000000000000000065
:101D600000001E0000000000000000000000000055
:101D70003C00FF0000FF00000000000000003C00ED
:101D8000FF0000FF0000FF0000FF00003C0000FF1C
:101D90000000FF00FF0000FF00003C0000FF00000B
:101DA000FF0000FF0000FF003C000000FF0000FFFC
:101DB00000FF0000FF003C000000FF0000FF0000EB
:101DC000FF0000FF3C00FF0000FF00000000FF00DC
:101DD00000FF3C00FF0000FF0000FF0000FF0000CC
:101DE0003C0000FF0000FF00FF0000FF00003C007F
:101DF00000FF0000FF0000FF0000FF003C000000AB
:101E0000FF0000FF00FF0000FF003C000000FF009B
:101E100000FF0000FF0000FF3C00FF0000FF00008B
:101E20000000FF0000FF3C00FF0000FF0000FF007B
:101E300000FF00003C0000FF0000FF00FF0000FF6B
:101E400000003C0000FF0000FF0000FF0000FF005A
:101E50003C000000FF0000FF00FF0000FF003C000E
:101E60000000FF0000FF0000FF0000FF3C00FF003B
:101E700000FF00000000FF0000FF3C00FF0000FF2B
:101E80000000FF0000FF00003C0000FF0000FF001A
:101E9000FF0000FF00003C0000FF0000FF0000FF0B
:101EA0000000FF003C000000FF0000FF00FF0000FA
:101EB000FF003C000000FF0000FF0000FF0000FFEB
:101EC0003C00FF0000FF00000000FF0000FF3C009E
:101ED000FF0000FF0000FF0000FF00003C0000FFCB
:101EE0000000FF00FF0000FF00003C0000FF0000BA
:101EF000FF0000FF0000FF003C000000FF0000FFAB
:101F000000FF0000FF003C000000FF0000FF000099
:101F1000FF0000FF3C00FF0000FF00000000FF008A
:101F200000FF3C00FF0000FF0000FF0000FF00007A
:101F30003C0000FF0000FF00FF0000FF00003C002D
:101F400000FF0000FF0000FF0000FF003C00000059
:101F5000FF0000FF00FF0000FF003C000000FF004A
:101F600000FF0000FF0000FF3C00FF0000FF00003A
:101F70000000FF0000FF3C00FF0000FF0000FF002A
:101F800000FF00003C0000FF0000FF00FF0000FF1A
:101F900000003C0000FF0000FF0000FF0000FF0009
:101FA0003C000000FF0000FF00FF0000FF003C00BD
:101FB0000000FF0000FF0000FF0000FF3C00FF00EA
:101FC00000FF00000000FF0000FF3C00FF0000FFDA
:101FD0000000FF0000FF00003C0000FF0000FF00C9
:101FE000FF0000FF00003C0000FF0000FF0000FFBA
:101FF0000000FF003C000000FF0000FF00FF0000A9
:10200000FF003C000000FF0000FF0000FF0000FF99
:102010003C00FF0000FF00000000FF0000FF3C004C
:10202000FF0000FF0000FF0000FF00003C0000FF79
:102030000000FF00FF0000FF00003C0000FF000068
:10204000FF0000FF0000FF003C000000FF0000FF59
:1020500000FF0000FF003C000000FF0000FF000048
:10206000FF0000FF3C00FF0000FF00000000FF0039
:1020700000FF3C00FF0000FF0000FF0000FF000029
:102080003C0000FF0000FF00FF0000FF00003C00DC
:1020900000FF0000FF0000FF0000FF003C00000008
:1020A000FF0000FF00FF0000FF003C000000FF00F9
:1020B00000FF0000FF0000FF3C00FF0000FF0000E9
:1020C0000000FF0000FF3C00FF0000FF0000FF00D9
:1020D00000FF00003C0000FF0000FF00FF0000FFC9
:1020E00000003C0000FF0000FF0000FF0000FF00B8
:1020F0003C000000FF0000FF00FF0000FF003C006C
:102100000000FF0000FF0000FF0000FF3C00FF0098
:1021100000FF00000000FF0000FF3C00FF0000FF88
:102120000000FF0000FF00003C0000FF0000FF0077
:10213000FF0000FF00003C0000FF0000FF0000FF68
:102140000000FF003C000000FF0000FF00FF000057
:10215000FF003C000000FF0000FF0000FF0000FF48
:102160003C00FF0000FF00000000FF0000FF3C00FB
:10217000FF0000FF0000FF0000FF00003C0000FF28
:102180000000FF00FF0000FF00003C0000FF000017
:10219000FF0000FF0000FF003C000000FF0000FF08
:1021A00000FF0000FF003C000000FF0000FF0000F7
:1021B000FF0000FF3C00FF0000FF00000000FF00E8
:1021C00000FF3C00FF0000FF0000FF0000FF0000D8
:1021D0003C0000FF0000FF00FF0000FF00003C008B
:1021E00000FF0000FF0000FF0000FF003C000000B7
:1021F000FF0000FF00FF0000FF003C000000FF00A8
:1022000000FF0000FF0000FF3C00FF0000FF000097
:102210000000FF0000FF3C00FF0000FF0000000086
:10222000000000003C000000000000000000000072
:1022300000003C0000000000000000000000000062
:102240003200404040404040000000000000F401E7
:10225000000000000000404040404040F401000009
:10226000000000000000000000003200000000003C
:1022700000000000000000005A00640000000000A0
:102280000000000000005A0064000000000064002C
:10229000000000005A0064640000000064000000B8
:1022A00000005A0064640000000064640000000044
:1022B0005A006464640000006464000000005A0076
:1022C0006464640000006464640000005A00646494
:1022D000646400006464640000005A006464646420
:1022E00000006464646400005A0064646464640010
:1022F0006464646400005A00646464646400646438
:10230000646464005A00646464646464646464645F
:1023100064005A006464646464646464646464644F
:102320005A006464646464646464646464645A0049
:102330006464646464646464646464005A0064642F
:10234000646464006464646464005A006464646483
:1023500064006464646400005A006464646400009F
:102360006464646400005A0064646464000064642B
:10237000640000005A006464640000006464640047
:1023800000005A00646464000000646400000000FF
:102390005A006464000000006464000000005A00F9
:1023A0006464000000006400000000005A00640043
:1023B000000000006400000000005A0064000000FB
:1023C00000000000000000005A00000000000000B3
:1023D000000000000000960000000000000008005F
:1023E000000800009600000800000800080000082F
:1023F0000000960000080000080008080008080017
:102400009600000808000808080800080800960060
:1024100000080800080808080808080896000008CE
:102420000800080864080808080896000008080062
:102430000808640808640808960000640800080892
:1024400064080864080896000064080064086408CA
:10245000086408089600006408006408646408645E
:10246000080896000064080064086464086464084E
:10247000960000646400640864640864640896005C
:102480000064640064646464086464089600006422
:1024900064006464646464646408960000646400B6
:1024A0006464646464646464960000000000000076
:1024B0000000000000003200646464646464000092
:1024C00000000000F4010000000000006464646487
:1024D0006464F4010000000000000000000000003F
:1024E0003200000000000000000000000000E803CF
:1024F000000000000000000000000000E8030000F1
:1025000000000000000000000000000001000100C9
:1025100001000100020002000200030003000400A9
:102520000500050006000700080009000A000B006E
:102530000C000E000F001000120013001500170011
:1025400019001B001D001F0021002300250028008A
:102550002A002D0030003300360039003C003F00D7
:102560004200460049004D005100550058005D00F2
:102570006100650069006E00730077007C008100D7
:1025800086008C00910096009C00A200A800AD007F
:10259000B400BA00C000C700CD00D400DB00E200E8
:1025A000E900F000F800FF0007010E0116011E010E
:1025B00027012F0138014001490152015B016401EB
:1025C0006D01770181018A0194019E01A901B30186
:1025D000BE01C801D301DE01E901F40100020C02D1
:1025E000170223022F023C024802540261026E02CB
:1025F0007B0288029602A302B102BF02CD02DB0277
:10260000E902F802070315032503340343035303C8
:102610006203720382039303A303B403C403D503C9
:10262000E603F80309041B042D043F04510463046A
:10263000760489049C04AF04C204D604E904FD04B2
:10264000110525053A054E05630578058D05A30599
:10265000B805CE05E405FA05100627063E06550620
:102660006C0683069B06B206CA06E206FB06130743
:102670002C0745075E0777079107AA07C407DE07FF
:10268000F90713082E084908640880089B08B70852
:10269000D308EF080B092809450962097F099D093C
:1026A000BA09D809F609150A330A520A710A900ABA
:1026B000B00ACF0AEF0A0F0B2F0B500B710B920BC6
:1026C000B30BD40BF60B180C3A0C5C0C7E0CA10C63
:1026D000C40CE70C0B0D2E0D520D760D9B0DBF0D8E
:1026E000E40D090E2E0E540E790E9F0EC50EEC0E43
:1026F000120F390F600F880FAF0FD70FFF0F0000B9
:102700000000240027002A00000000002500280007
:102710002B0000000000230026002900040404040C
:10272000040404040202020202020303030303037B
:102730000102040810204080010204081020010258
:102740000408102000000007000201000003040636
:102750000000000000000000CB2A11241FBECFEFB4
:10276000D8E0DEBFCDBF12E0A0E0B1E0EAEDFCE5CD
:1027700002C005900D92AE3FB107D9F715E0AEEF5C
:10278000B2E001C01D92A53EB107E1F717E2CAE52C
:10279000D7E204C02297FE010E94302EC835D1072F
:1027A000C9F70E941B2B0C946B2E0C940000A0E028
:1027B000B0E0EDEDF3E10C943C2EEC01A880B98083
:1027C000CA80DB80A114B104C104D10441F484E2C5
:1027D000A82E89EDB82E8BE5C82E87E0D82EC6012D
:1027E000B5012DE133EF41E050E00E94132E27EABE
:1027F00031E440E050E00E94B22D7B018C01C60123
:10280000B5012DE133EF41E050E00E94132ECA01E3
:10281000B9012CEE34EF4FEF5FEF0E94B22D6E0D39
:102820007F1D801F911F97FF04C061507040804042
:102830009048688379838A839B839B01AC015F778F
:10284000B901CA01CDB7DEB7EAE00C94582E0E9458
:10285000D713089580E091E00E94D7130895609304
:102860000001709301018093020190930301089588
:10287000FB01DC0102C005900D9241505040D8F799
:102880000895FB01DC0102C001900D9241505040BF
:10289000D8F708952F923F924F925F926F927F9256
:1028A0008F929F92AF92BF92CF92DF92EF92FF9260
:1028B0000F931F93DF93CF93CDB7DEB7E4970FB697
:1028C000F894DEBF0FBECDBF6E2C2C8B3B8B4A8B9A
:1028D000598B688B7F878C2D90E0A0E0B0E0BC0125
:1028E000CD010E94992C698F7A8F8B8F9C8F60937A
:1028F0007105709372058093730590937405AD2CE8
:10290000BB24CC24DD24C601B5010E94992C5B01B7
:102910006C016093750570937605809377059093AD
:102920007805772488249924C401B3010E94992C46
:102930003B014C016093790570937A0580937B0588
:1029400090937C052F2C332444245524C201B101DB
:102950000E94992C1B012C0160937D0570937E05CC
:1029600080937F0590938005602F70E080E090E079
:102970000E94992C6D8F7E8F8F8F98A36093810515
:10298000709382058093830590938405E12EFF2444
:1029900000E010E0C801B7010E94992C7B018C0176
:1029A00060938505709386058093870590938805CD
:1029B0002C89622F70E080E090E00E94992C69A33E
:1029C0007AA38BA39CA36093890570938A05809357
:1029D0008B0590938C05AB896A2F70E080E090E0C6
:1029E0000E94992C6DA37EA38FA398A760938D0559
:1029F00070938E0580938F0590939005BA896B2F05
:102A000070E080E090E00E94992C69A77AA78BA7DC
:102A10009CA7609391057093920580939305909382
:102A200094052989622F70E080E090E00E94992C43
:102A30006DA77EA78FA798AB6093950570939605B9
:102A40008093970590939805A8896A2F70E080E09D
:102A500090E00E94992C69AB7AAB8BAB9CAB6093F6
:102A6000990570939A0580939B0590939C05BF856B
:102A70006B2F70E080E090E00E94992C6D8B7E8B34
:102A80008F8B988F60939D0570939E0580939F0513
:102A90009093A0056091FE027091FF028091000367
:102AA00090910103298D3A8D4B8D5C8D0E949C2B5A
:102AB00020E030E040E85CE30E944F2D6093310558
:102AC000709332058093330590933405609102032F
:102AD000709103038091040390910503A601950171
:102AE0000E949C2B20E030E040E85CE30E944F2DE8
:102AF00060933505709336058093370590933805BC
:102B00006091060370910703809108039091090377
:102B1000A40193010E949C2B20E030E040E85CE39C
:102B20000E944F2D6093390570933A0580933B05C1
:102B300090933C0560910A0370910B0380910C0304
:102B400090910D03A20191010E949C2B20E030E0A6
:102B500040E85CE30E944F2D60933D0570933E0575
:102B600080933F059093400560910E0370910F0391
:102B700080911003909111032D8D3E8D4F8D58A1A2
:102B80000E949C2B20E030E040E85CE30E944F2D47
:102B900060934105709342058093430590934405EB
:102BA00060911203709113038091140390911503A7
:102BB000A80197010E949C2B20E030E040E85CE3F4
:102BC0000E944F2D609345057093460580934705FD
:102BD0009093480560911603709117038091180334
:102BE0009091190329A13AA14BA15CA10E949C2BB1
:102BF00020E030E040E85CE30E944F2D60934905FF
:102C000070934A0580934B0590934C0560911A038D
:102C100070911B0380911C0390911D032DA13EA177
:102C20004FA158A50E949C2B20E030E040E85CE3D7
:102C30000E944F2D60934D0570934E0580934F0574
:102C40009093500560911E0370911F0380912003A3
:102C50009091210329A53AA54BA55CA50E949C2B28
:102C600020E030E040E85CE30E944F2D6093510586
:102C700070935205809353059093540560912203FD
:102C80007091230380912403909125032DA53EA5E7
:102C90004FA558A90E949C2B20E030E040E85CE35F
:102CA0000E944F2D609355057093560580935705EC
:102CB0009093580560912603709127038091280313
:102CC0009091290329A93AA94BA95CA90E949C2BA0
:102CD00020E030E040E85CE30E944F2D609359050E
:102CE00070935A0580935B0590935C0560912A036D
:102CF00070912B0380912C0390912D032D893E8997
:102D00004F89588D0E949C2B20E030E040E85CE326
:102D10000E944F2D60935D0570935E0580935F0563
:102D200090936005E4960FB6F894DEBF0FBECDBF5A
:102D3000CF91DF911F910F91FF90EF90DF90CF9097
:102D4000BF90AF909F908F907F906F905F904F90CB
:102D50003F902F9008952F923F924F925F926F92E3
:102D60007F928F929F92AF92BF92CF92DF92EF921B
:102D7000FF920F931F93DF93CF9300D000D000D02A
:102D8000CDB7DEB7E52EA62E672E842F90E0A0E00B
:102D9000B0E0BC01CD010E94992C1B012C01609375
:102DA000A5057093A6058093A7059093A805FF2419
:102DB00000E010E0C801B7010E94992C7B018C0152
:102DC0006093A9057093AA058093AB059093AC0519
:102DD000BB24CC24DD24C601B5010E94992C5B01E3
:102DE0006C016093AD057093AE058093AF05909331
:102DF000B005772488249924C401B3010E94992C3A
:102E00003B014C016093A1057093A2058093A3053B
:102E10009093A40560913203709133038091340341
:102E200090913503A20191010E949C2B20E030E09B
:102E300040E85CE30E944F2D609365057093660542
:102E4000809367059093680560913603709137030E
:102E50008091380390913903A80197010E949C2B1F
:102E600020E030E040E85CE30E944F2D609369056C
:102E700070936A0580936B0590936C0560913A039B
:102E800070913B0380913C0390913D03A601950115
:102E90000E949C2B20E030E040E85CE30E944F2D34
:102EA00060936D0570936E0580936F059093700528
:102EB00060912E0370912F03809130039091310324
:102EC000A40193010E949C2B20E030E040E85CE3E9
:102ED0000E944F2D60936105709362058093630596
:102EE0009093640526960FB6F894DEBF0FBECDBF53
:102EF000CF91DF911F910F91FF90EF90DF90CF90D6
:102F0000BF90AF909F908F907F906F905F904F9009
:102F10003F902F9008958F929F92AF92BF92CF9241
:102F2000DF92EF92FF920F931F93CF93DF93882E40
:102F3000CEE2D3E0A1E6AA2EA5E0BA2EF1EACF2E8A
:102F4000F5E0DF2EE3E09E2EE880F9800A811B8108
:102F5000C801B7010E946D2CE62FF0E0EE0FFF1FB5
:102F6000E250FB4D45915491292D30E0C901880F65
:102F7000991F820F931F95958795E82FF0E0382FC2
:102F80003F5F90FC15C0E353FA4FCA0124E09695C9
:102F900087952A95E1F78083E32FF0E0E353FA4F1A
:102FA00080818F70942F9295907F892B80830BC0A6
:102FB000E353FA4F8081807F852B8083E32FF0E0FD
:102FC000E353FA4F40838820C9F0C801B701F601E6
:102FD00020813181428153810E94012C8823B9F0E4
:102FE000C801B701F50120813181428153810E94DE
:102FF0009C2B688379838A839B8309C0F601808137
:103000009181A281B38188839983AA83BB8324960B
:103010009A9484E090E0A80EB91EC80ED91E9FEFC6
:10302000991609F091CFDF91CF911F910F91FF90E9
:10303000EF90DF90CF90BF90AF909F908F900895CA
:1030400080933E0310923F0381E08093400360939E
:10305000D2028FEF809341034093430384E0809337
:10306000420380E00895CF93DF938091400388234B
:1030700009F470C0F0996EC080913F038C3FF1F469
:103080008091410390E020913E0330E0FC01EE0F7F
:10309000FF1FE80FF91FEE0FFF1FC901880F991FCF
:1030A000820F931F73E0880F991F7A95E1F7E80F5D
:1030B000F91FEC5FFE4FC481D58138C08823A1F58C
:1030C000809141038F5F8093410390914203891760
:1030D00040F0109241038091D202882311F41092A3
:1030E00040038091410390E020913E0330E0FC01D9
:1030F000EE0FFF1FE80FF91FEE0FFF1FC901880F2A
:10310000991F820F931FB3E0880F991FBA95E1F7BB
:10311000E80FF91FEC5FFE4F40815181628173819E
:10312000848195810E94AB16C0E0D0E090E0809150
:103130004303811191E0892F0E948B17F09A8091AF
:103140003F038C5F80933F03809143039E01280FD0
:10315000311D02C020E030E0C901DF91CF91089518
:103160005F926F927F928F929F92AF92BF92CF9217
:10317000DF92EF92FF920F931F93CF93DF93582E1E
:10318000B1E7CB2EB5E0DB2EA1E36A2EA5E07A2EC7
:10319000CEEFD2E0FDE28F2E912CEFE0AE2EB12CDF
:1031A00080914D03882371F0F601608171818281E5
:1031B000938120E030E040E050E00E94012C882321
:1031C00009F460C0688179818A819B810E946D2C9D
:1031D000E62FF0E0EE0FFF1FE250FB4D25913491FA
:1031E000C40195958795E82FF0E0482F4F5FA0FC2C
:1031F00015C0E353FA4FC90154E0969587955A9547
:10320000E1F78083E42FF0E0E353FA4F922F929599
:10321000907F80818F70982B90830BC0E353FA4F7F
:103220008081807F832B8083E42FF0E0E353FA4F8B
:103230002083F09A5520E9F0E880F9800A811B810B
:10324000C801B701F60120813181428153810E947A
:10325000012C8823B9F0C801B701F3012081318125
:10326000428153810E949C2B688379838A839B834C
:1032700009C0F60180819181A281B38188839983FD
:10328000AA83BB8384E090E0C80ED91E680E791E25
:103290002496EDEFFFEF8E0E9F1E0894A108B10853
:1032A000F1EACF16F5E0DF0609F07ACFDF91CF9192
:1032B0001F910F91FF90EF90DF90CF90BF90AF9054
:1032C0009F908F907F906F905F9008958F929F92C4
:1032D000AF92BF92CF92DF92EF92FF920F931F9324
:1032E000CF93DF9380914D03882329F42091BD056E
:1032F0003091BE0595C031E7C32E35E0D32ECEEF19
:10330000D2E02DE2822E912C9FE0A92EB12CF60165
:10331000608171818281938120E030E040E050E063
:103320000E94012C882329F080914603882309F00C
:1033300063C0688179818A819B810E946D2CE62F10
:10334000F0E0EE0FFF1FE250FB4D25913491C401D8
:1033500095958795E82FF0E0482F4F5FA0FC15C0AA
:10336000E353FA4FC90114E0969587951A95E1F752
:103370008083E42FF0E0E353FA4F922F9295907FF1
:1033800080818F70982B90830BC0E353FA4F80811C
:10339000807F832B8083E42FF0E0E353FA4F208378
:1033A000F09AE880F9800A811B81C801B701F60113
:1033B00020813181428153810E94012C8823E1F0D8
:1033C000C801B7012AE037ED43EA5EE30E949C2B77
:1033D000688379838A839B8320E030E040E050E07B
:1033E0000E94012C882344F480E090E0A0E0B0E04B
:1033F00088839983AA83BB8384E090E0C80ED91E9A
:103400002496EDEFFFEF8E0E9F1E0894A108B108E1
:10341000F1EACF16F5E0DF0609F079CF23E030E0DE
:10342000C901DF91CF911F910F91FF90EF90DF9035
:10343000CF90BF90AF909F908F90089586E6809335
:103440007C0010927B008FEC80937A00089521E03D
:10345000209368032093080490936A038093690380
:103460008CE08093FB0308951F920F920FB60F928A
:103470001124DF92EF92FF920F931F932F933F93AC
:103480004F935F936F937F938F939F93AF93BF936C
:10349000EF93FF9380917C008770863009F06CC1B8
:1034A000809179008093550380917A00806C80939D
:1034B0007A008091530390915403019690935403A2
:1034C000809353039091550380915103891728F4F9
:1034D00080915503809351030AC0909155038091C8
:1034E000D402981720F4809155038093D4028091E0
:1034F0005303909154038436910509F03DC18091A6
:1035000051039091D402891B80935203609152031E
:1035100070E0882777FD8095982F0E949B2C23E3ED
:1035200033E343E550E40E944F2D20E030E040E8D3
:103530005BE30E944F2D6093560370935703809373
:103540005803909359038FEF8093D4021092510344
:10355000109254031092530380916803882381F0E2
:103560008091690390916A03892B51F4109268034A
:1035700010926A031092690381E0809308040DC0E1
:1035800080916803882349F08091690390916A03D0
:10359000019790936A038093690380915E039091F1
:1035A0005F03893C910508F43FC0E0905A03F09016
:1035B0005B0300915C0310915D0360915E03709169
:1035C0005F0380E090E00E94992C9B01AC01C80150
:1035D000B7010E94052C6093600370936103809390
:1035E0006203909363036091600370916103809123
:1035F00062039091630320915603309157034091E9
:103600005803509159030E949D2B60935A03709365
:103610005B0380935C0390935D0382E090E0909362
:103620005F0380935E0323C080915E0390915F03EC
:10363000019690935F0380935E0360915A037091AB
:103640005B0380915C0390915D0320915603309160
:10365000570340915803509159030E949D2B60934A
:103660005A0370935B0380935C0390935D03809196
:103670006703893C28F0109266031092670305C027
:10368000809167038F5F80936703809164038093C9
:103690006503E0905603F090570300915803109192
:1036A000590360916003709161038091620390916E
:1036B0006303DD242DEC3CEC4CE45DE30E949D2B88
:1036C0009B01AC01C801B7010E944B2D181614F4E0
:1036D000DD24D394D0926403809168038823A1F4FD
:1036E0008091D702882381F480916403882361F05C
:1036F00080916503882341F4809166038F5F8093F6
:1037000066038091660338C080916403882371F05A
:1037100080916503882351F480916803882331F0F8
:103720008091D802882311F089E00DC08091640354
:10373000882311F1809165038823F1F48091D702E9
:103740008823D1F08BE080933E0310923F0381E009
:10375000809340031092D2028FEF80934103109226
:10376000430384E080934203109204041092050402
:103770001092060410920704FF91EF91BF91AF9150
:103780009F918F917F916F915F914F913F912F9179
:103790001F910F91FF90EF90DF900F900FBE0F9051
:1037A0001F901895AF92BF92CF92DF92EF92FF9247
:1037B0000F931F93DF93CF93CDB7DEB72E970FB63E
:1037C000F894DEBF0FBECDBF80914603882309F475
:1037D000B8C0F099B6C080914503882339F0809134
:1037E0004B03882319F0AA24BB2499C040914903B4
:1037F00050914A038091470390914803841795079D
:10380000C0F18091D302882329F0109248031092CE
:1038100047032FC080914E03882349F120914F0325
:10382000309150032115310511F1DE011196E1EBC4
:10383000F5E08EE001900D928150E1F7A1EBB5E04B
:10384000EFEBF5E08EE001900D928150E1F7AFEBE8
:10385000B5E0FE0131968EE001900D928150E1F7C6
:10386000215030403093500320934F0302C01092F8
:103870004603A090BD05B090BE0580914E038823FD
:1038800041F0809147039091480301968417950772
:10389000F8F4E0914403F0E0EE0FFF1FE45CFD4F0D
:1038A0008091470390914803880F991F9C0143E042
:1038B000220F331F4A95E1F7281B390B6081718174
:1038C000620F731F81EB95E04EE050E00E943814C8
:1038D000C090B105D090B205E090B305F090B4056A
:1038E0000091B5051091B6052091B7053091B80546
:1038F0004091B9055091BA056091BB057091BC0526
:103900008091BD059091BE050E944A1480914703A5
:1039100090914803019690934803809347038091C8
:103920004B030E94B018809145038C5F8093450340
:1039300080914B03882339F080914C03A80EB11C71
:1039400002C0AA24BB24C5012E960FB6F894DEBF90
:103950000FBECDBFCF91DF911F910F91FF90EF90E0
:10396000DF90CF90BF90AF900895EF920F93E82F24
:10397000809344031092450381E080934603609353
:10398000D302109248031092470340934B032093B5
:103990004C0310924E031092500310924F03F0E02C
:1039A000EE0FFF1FE45CFD4F6081718181EB95E0BC
:1039B0004EE050E00E943814002349F4E0914403A3
:1039C000F0E0EC57FD4F80818093490302C00093E3
:1039D000490310924A03E0924D0380E00F91EF906B
:1039E0000895EF920F93DF93CF93CDB7DEB70E9488
:1039F000B51C81E080934E038D899E89909350037E
:103A000080934F03AFEBB5E0FE0137968EE0019057
:103A10000D928150E1F7CF91DF910F91EF900895D2
:103A20000E943C1DEDECF5E010821182128233966B
:103A300085E0E53EF807C1F70E94201D78940895BF
:103A40005F9902C090E002C05F9891E05E98EDEC53
:103A5000F5E08091C00085FFFCCF81918093C60086
:103A600085E0E53EF807A9F75E9A5D9A5D9899238F
:103A700011F05C9A5C980895E4ECF0E011821082F9
:103A8000549A539A579A559A569A519A5C985B98B9
:103A90005F9A5D985E9AF098F19880EC8093C200EE
:103AA00088E08093C1001182108282E08093B00090
:103AB00084E08093B1008FE08093B300E0E7F0E012
:103AC00080818260808308951F920F920FB60F92BB
:103AD00011248F93EF93FF935E9AF19B03C0F198AB
:103AE0005D9A5D985E98F09B0FC0EDECF5E08091DB
:103AF000C00085FFFCCF81918093C60085E0E53E44
:103B0000F807A9F7F19AF098FF91EF918F910F9034
:103B10000FBE0F901F9018959C018091F50388238C
:103B200079F42115310579F080910A048823A1F4F4
:103B30008091FB03882381F481E0809309040CC009
:103B40002115310549F480916803882311F41092FE
:103B5000FB038CE390E04AC02130310551F48091A1
:103B60006803882319F481E08093FB038DE290E0E1
:103B70003DC02430310550F480916803882319F446
:103B800082E08093FB0383E290E030C0293031056E
:103B900050F480916803882319F483E08093FB0339
:103BA0008BE190E023C02031310550F4809168030F
:103BB000882319F484E08093FB0384E190E016C02D
:103BC0002831310550F480916803882319F485E089
:103BD0008093FB038FE090E009C080916803882305
:103BE00019F486E08093FB0388E090E09093D6027E
:103BF0008093D5022093F503089580914003882394
:103C000069F12091790330917A0340917B035091BF
:103C10007C038091040490910504A0910604B09166
:103C20000704281739074A075B07C0F00E943318BA
:103C3000A0E0B0E02091790330917A0340917B03BA
:103C400050917C03820F931FA41FB51F809304041F
:103C500090930504A0930604B09307048091D702C3
:103C6000882341F580914003882371F08091680397
:103C7000882301F58091D8028823E1F09091FB031D
:103C800080913E038917B1F08091F60390E00E9485
:103C90008C1D8091FB0361E040E00E94201890E0C1
:103CA000A0E0B0E08093040490930504A093060480
:103CB000B09307040895EF920F93CF93DF93809111
:103CC0006803882309F055C00091F4030A30F8F026
:103CD0008DB79EB740970FB6F8949EBF0FBE8DBFAD
:103CE000CDB7DEB72196DE01E6EBF2E08EE0019083
:103CF0000D928150E1F786E090E09F878E8782E207
:103D000060E041E022E001E1EE24E3941DC08DB7C4
:103D10009EB740970FB6F8949EBF0FBE8DBFCDB72C
:103D2000DEB72196095FDE01E4ECF2E08EE001905F
:103D30000D928150E1F780E190E09F878E8782E2CB
:103D400060E041E022E0EE240E94F11C90E0A0E05F
:103D5000B0E08093FC039093FD03A093FE03B09327
:103D6000FF038DB79EB740960FB6F8949EBF0FBE67
:103D70008DBFDF91CF910F91EF900895EF920F9348
:103D8000CF93DF9380916803882309F05EC0809110
:103D9000F303813041F166E00E94D12D09E1081B57
:103DA0000E3010F00E3001F58DB79EB740970FB66C
:103DB000F8949EBF0FBE8DBFCDB7DEB72196DE0152
:103DC000E6EBF2E08EE001900D928150E1F789E0A0
:103DD00090E09F878E8780E260E041E022E00EE085
:103DE000EE24E3941DC00AE18DB79EB740970FB64D
:103DF000F8949EBF0FBE8DBFCDB7DEB72196DE0112
:103E0000E8EAF2E08EE001900D928150E1F780E166
:103E100090E09F878E8780E260E041E022E0EE2420
:103E20000E94F11C90E0A0E0B0E08093FC0390932E
:103E3000FD03A093FE03B093FF038DB79EB740969A
:103E40000FB6F8949EBF0FBE8DBFDF91CF910F913B
:103E5000EF900895EF920F9380910804882341F426
:103E600080914603882391F58091D802882371F5CB
:103E700081E08093D802109208041092F903109206
:103E8000F80380916803882309F04DC18091D7021F
:103E9000882309F048C180917103909172036AE010
:103EA00070E00E94DD2D8C5E61E041E022E000E0E8
:103EB000EE240E94B51C90E0A0E0B0E08093FC03EB
:103EC0009093FD03A093FE03B093FF0380916803DA
:103ED000882391F08091DA02882311F01092DA029F
:103EE0008091D902882311F01092D902809109049F
:103EF000882311F01092090480910A04882349F163
:103F00001092D80210920A048EE160E040E022E0B4
:103F100000E0EE240E94B51C90E0A0E0B0E08093A9
:103F2000FC039093FD03A093FE03B093FF0388E08E
:103F300061E040E00E94201890E0A0E0B0E08093B3
:103F4000040490930504A0930604B0930704109210
:103F500009048091D802882351F08091DA028823E5
:103F600031F01092D8021092DA020E94BE1E8091A7
:103F7000D802882351F08091D902882331F0109221
:103F8000D8021092D9020E945B1E809109048823F6
:103F9000E9F0809168038823C9F41092D802109246
:103FA0000804109209048FE160E040E022E000E0A4
:103FB000EE240E94B51C90E0A0E0B0E08093FC03EA
:103FC0009093FD03A093FE03B093FF038091D8026A
:103FD000882309F449C080916803882309F044C00C
:103FE0002091D5023091D60288EE93E0A901489F36
:103FF0009001499F300D589F300D11248091F80396
:104000009091F9032817390778F58091F3038D33E0
:1040100028F42AE030E040E050E004C024E130E041
:1040200040E050E060E070E080E090E00E94762B9D
:10403000862F6093FA0360E041E021E000E0EE2487
:10404000E3940E94B51C90E0A0E0B0E08093FC03F4
:104050009093FD03A093FE03B093FF031092F90326
:104060001092F8031092D80280914603882369F1D8
:104070002091790330917A0340917B0350917C0326
:104080008091FC039091FD03A091FE03B091FF038A
:10409000281739074A075B07C0F00E94D21BA0E02F
:1040A000B0E02091790330917A0340917B035091E5
:1040B0007C03820F931FA41FB51F8093FC03909372
:1040C000FD03A093FE03B093FF0320917903309189
:1040D0007A0340917B0350917C038091000490917E
:1040E0000104A0910204B0910304281739074A077C
:1040F0005B07F0F00E946619A0E0B0E02091790320
:1041000030917A0340917B0350917C03820F931F7F
:10411000A41FB51F8093000490930104A093020490
:10412000B093030405C083E261E040E020E0BFCE2D
:104130000F91EF9008951F930E942A1F0E94FD1D6A
:104140008EE00E945029182F882361F080910E0480
:10415000181741F480910F04181721F484E391E2B9
:104160000E94271A80910E0480930F0410930E046E
:104170008091D702882391F08091790390917A03FE
:10418000A0917B03B0917C0381529E44A040B0403B
:1041900028F01092D70281E0809308041F910895BF
:1041A000EF92FF920F931F93A8950E94F9276093B7
:1041B000790370937A0380937B0390937C0320911F
:1041C00075033091760340917703509178037B011A
:1041D0008C01E21AF30A040B150BA8019701E09277
:1041E0007D03F0927E0300937F031093800360931E
:1041F000750370937603809377039093780380918F
:104200000B0490910C048E0D9F1D90930C048093D1
:104210000B048091D702882351F48091F803909188
:10422000F9038E0D9F1D9093F9038093F803CA0143
:10423000B9010E949B208091D702882309F0ACC16C
:104240008091DB029091DC02019791F080910B0448
:1042500090910C048051974258F48091E302882396
:1042600009F09AC10E94452681E08093E30294C13F
:1042700080910B0490910C048A54984308F01FC15C
:104280008091E302882329F08FEF0E944526109247
:10429000E3020E945B25882309F4CDC080912A04A3
:1042A00090912B04892B09F0C6C080912E048D308B
:1042B00009F0C1C0A0E1B4E0EFE2F4E001900D929A
:1042C0008150E1F720911104309112042936310513
:1042D00008F0B1C0E0918903F0E0EF57FC4F408156
:1042E0004F5F4083F901E657FC4F9081892F816031
:1042F0008083992389F52A30310528F48091F403CD
:104300008F5F8093F4038091F3038F5F8093F303B7
:10431000F901E657FC4FE081F999FECF1FBA265FFD
:104320003F4F32BD21BD2A503040E0BD0FB6F8945A
:10433000FA9AF99A0FBE2A30310510F081E001C0D7
:1043400082E080930A04823021F481E08093D902D4
:1043500003C081E08093DA028091F603841760F451
:10436000842F90E00E948C1DE0918903F0E0EF57CC
:10437000FC4F80818093F603209111043091120448
:104380008091E1029091E2022817390708F4C901EF
:104390009093E2028093E1028091130490911404BF
:1043A0000A9760F480916803882341F480911B048C
:1043B00090911C04009711F00E94271A8091F60337
:1043C0008823C9F020911304309114048091DF02F6
:1043D0009091E0022817390770F02817390759F52E
:1043E0002091110430911204809171039091720315
:1043F0002817390700F52091130430911404809197
:10440000DF029091E0022817390708F4C901909360
:10441000E0028093DF02809115049091160490933E
:10442000DC028093DB028091170490911804909332
:104430000C0480930B0480910D04882309F0ACC018
:1044400020910B0430910C048091DD029091DE02EA
:104450008217930708F0A0C08091DF029091E002DC
:1044600090932104809320048091DB029091DC02E0
:1044700090932304809322048091690390916A03AE
:1044800090932904809328043093250420932404D6
:104490000E94EA25882309F47FC081E080930D04FF
:1044A00080E06DE174E04DE00E946126809171032F
:1044B000909172039093E0028093DF026DC010929E
:1044C0000C0410920B04E1E8F3E020E0808128174F
:1044D00008F4282F319683E0E938F807B9F72093DC
:1044E000F6038091890390E0019687709070809325
:1044F00089033897E80FF91F1082822F90E00E94FD
:104500008C1D8091DB029091DC0201969093DC027D
:104510008093DB0280910D04882381F4E091F703FE
:10452000E33060F4EF5FE093F703F0E0EE0FFF1F7E
:10453000EA51FD4F808191810E94902410920D04D8
:104540008091DB029091DC028B309105A8F0809184
:10455000E1029091E2029093E0028093DF02809169
:104560007103909172039093E2028093E1021092A2
:10457000DC021092DB0210C0099771F48091DA021C
:10458000882319F481E08093DA028091D90288238C
:1045900019F481E08093D9021F910F91FF90EF9061
:1045A0000895EF920F93CF93DF9364E670E080E07D
:1045B00090E00E9407282EE088E190E00FB6F89482
:1045C000A895809360000FBE209360008FE060E0AC
:1045D0000E94BD2820E030E0F999FECF32BD21BD18
:1045E000F89A80B5F901E559FC4F80832F5F3F4F62
:1045F0002A30310589F780916B03813009F45CC062
:1046000021E020936B0384E080936C0383ED80931F
:104610006D0320936E0380936F032093700381E0FA
:1046200090E0909372038093710389E690E09093F9
:104630007403809373031092F3031092F40389E6DA
:10464000EAE8F3E0DF011D928A95E9F720938B03F6
:104650008AE090E0FC01E058FC4FE081F999FECF40
:104660001FBA92BD81BDE0BD0FB6F894FA9AF99ACF
:104670000FBE01968337910569F78091F3038F5F31
:104680008093F3038091F4038F5F8093F40380E0C1
:1046900090E0FC01E559FC4FE081F999FECF1FBA8B
:1046A00092BD81BDE0BD0FB6F894FA9AF99A0FBE9B
:1046B00001968A30910569F7809171039091720398
:1046C00090931F0480931E04809173039091740350
:1046D000909327048093260480916B0380931D049C
:1046E00080916E0390916C03943019F461E070E056
:1046F00007C0993019F062E070E002C063E070E03A
:1047000041E00E94A526C0917103D0917203D0931D
:10471000E202C093E102D093E002C093DF02609115
:1047200073037091740382E790E10E94DD2D6C9F0A
:10473000C0016D9F900D7C9F900D11248C58984D59
:104740009093DE028093DD02AAE8B3E040E090E0BF
:1047500020E030E051E0BE01665F7F4FF999FECF67
:10476000265F3F4F32BD21BD2A503040F89A80B5B8
:104770008C932C173D0781F45C93F901E657FC4FAD
:10478000E081F999FECF1FBA72BD61BDE0BD0FB6E1
:10479000F894FA9AF99A0FBE8C91980F2A3008F47F
:1047A000480F2F5F3F4F119629363105B9F64093D8
:1047B000F4039093F3030E94F927609375037093B9
:1047C000760380937703909378030E94F927609390
:1047D000790370937A0380937B0390937C030E9408
:1047E000101D87E061E040E00E94201881E260E057
:1047F00041E022E000E0EE240E94B51C80917103AC
:10480000909172030E94942B60E070E080E090E051
:1048100022E030E040E050E00E94762B20E630E0DD
:1048200040E050E00E94B22D6093DC0160E070E057
:1048300080E090E022E030E040E050E00E94762B03
:1048400020E630E040E050E00E94B22D6093DD01B0
:1048500060E070E080E090E022E030E040E050E096
:104860000E94762B20E630E040E050E00E94B22D1E
:104870006093DE018091DC01882361F48091DD0189
:10488000882341F4662331F480E68093DC0180E3E1
:104890008093DE018091DC0180930C028091DD0128
:1048A00080930D028091DE0180930E0280E00E94D1
:1048B0009B280E94942B0E941E1ADF91CF910F918A
:1048C000EF900895782F8CB581608CBD65B121E0A3
:1048D00030E040E050E00090E40204C0220F331FBB
:1048E000441F551F0A94D2F7522F822F809586239A
:1048F00085B99EBD0DB407FEFDCF8EB57EBD0DB44E
:1049000007FEFDCF4EB5382F20E085B1582B55B9A5
:104910008CB58E7F8CBD50E0422B532BCA0108957D
:10492000E8980E946224E89A089580E090E00E944E
:10493000622480917A04853009F054C080E090EBC5
:104940000E946224282F80917C04882371F4909126
:104950007B04992351F080917C04E82FF0E0E45D22
:10496000FB4F90838F5F80937C0480917C04E82FC1
:10497000F0E0E45DFB4F20838F5F80937C048091A7
:104980002A0490912B048227282F22952827022E73
:10499000269526952025022E269520252770082E5F
:1049A000892F269507942795902D82270694279581
:1049B0009025822790932B0480932A0480912E04C3
:1049C00020917C0490E0049630E0821793072CF04D
:1049D00080917C04873408F46DC08DE092E80E94D9
:1049E0006224089580917A0487FF2EC0E0912E04FE
:1049F00080917A048F5F80937A048150ED5FE80F95
:104A0000F0E0E45DFB4FE08180912A0490912B045B
:104A10008E27282F22952827022E26952695202599
:104A2000022E269520252770082E892F269507947B
:104A30002795902D8227069427959025822790937D
:104A40002B0480932A0430C080917A048F5F809376
:104A50007A048150833019F184302CF4882399F042
:104A6000813009F516C0893019F08A30E1F402C0AE
:104A7000EDE21AC0E0917B0490912E048EEF891B29
:104A800080937A0411C080912A0490912B04E82F1E
:104A90000BC080912A0490912B04E92F05C08DE072
:104AA00092E80E946224EAEA8E2F90E080509844B7
:104AB0000E946224089580917A04853009F042C0F2
:104AC00080912E0420917C0490E0049630E08217BF
:104AD000930724F080917C048734A0F184E08093D4
:104AE0007A0480912E04833430F081E090E090933A
:104AF0002B0480932A0480912D0486FF12C080919C
:104B00007904282F30E0C9018F7190704F9749F0D8
:104B100080912D0490E0822793278F719070892BCC
:104B200089F480912A0490912B04892B09F044C0C8
:104B3000E0917704F0917804309709F43DC080E06B
:104B4000099546C080917A04843011F080E0089580
:104B500010922E0480912E0480937C048FEF9FEF9F
:104B600090932B0480932A0420917B042223D9F074
:104B70008227282F22952827022E26952695202544
:104B8000022E269520252770082E892F269507941A
:104B90002795902D8227069427959025822790931C
:104BA0002B0480932A0485E080937A048DED92E8AB
:104BB0000E94622480E008958FEF9FEFAFEFBFEF78
:104BC0008093730490937404A0937504B093760457
:104BD00081E0089580917A048530A1F480917C046D
:104BE000882381F41EBC0DB407FEFDCF0EB400FC7B
:104BF00009C08DE092E80E94622484E080937A04E8
:104C000081E0089580E00895982F86FD05C0907E8C
:104C1000809179048F71980F90932D04E09177041F
:104C2000F0917804309711F081E009958FEF9FEFB4
:104C300090932B0480932A0480912A0490912B0452
:104C400020917B048227282F22952827022E269543
:104C500026952025022E269520252770082E892F9F
:104C6000269507942795902D8227069427959025C1
:104C7000822790932B0480932A0486E080937A0401
:104C80008DE392E80E94622408951F93182F87FFF6
:104C900003C08DE092E80EC0992787FD9095956E30
:104CA0000E94902485E092E80E949024112321F034
:104CB00087E092E80E94902484E080937A041F9118
:104CC00008951F93182F40932E042FE234E0C9015A
:104CD00050E00E944114812F0E9404261F910895E4
:104CE00025B181E090E0A0E0B0E00090E40204C0D3
:104CF000880F991FAA1FBB1F0A94D2F7282B25B92A
:104D000024B1822B84B98AE061E00E94FC288AE009
:104D100061E00E94BD288BE061E00E94BD288CE02C
:104D200060E00E94BD288DE061E00E94BD2880E522
:104D30008CBD8DB581608DBD82E060E00E94BD2894
:104D400082E061E00E94FC2808951F93162F809353
:104D5000790440937B040E94702680E090E00E94DA
:104D6000622485E092E80E94622480E098EB02C011
:104D700080E090E00E94622482E00E945029892B0A
:104D8000B9F3812F90E074E0880F991F7A95E1F7CD
:104D9000876C90680E94622480E496EA0E946224F4
:104DA00086E096EC0E94622482EA94E90E946224E2
:104DB0008CEA92EC0E94622410917B04112341F052
:104DC00083E89AEC0E946224812F90E09E6C06C0DA
:104DD0008BE89AEC0E9462248DE29EEC0E94622491
:104DE00083E894EC0E94622480E598E90E946224A2
:104DF00087E79CEC0E94622480E090EE0E9462248F
:104E000080E098EC0E94622489E490EC0E94622485
:104E100084E080937A048091790490E08F7190709F
:104E2000892B41F080E065E974E240E050E00E94A7
:104E3000212703C080E00E944427809179041F91BC
:104E40000895823000F5E82FF0E0EE0FFF1FE358E1
:104E5000FB4F71836083882319F08130A1F408C06F
:104E6000809169008C7F842B80936900E89A089573
:104E700080916900440F551F440F551F837F842B79
:104E800080936900E99A0895823080F4882319F0AC
:104E9000813021F402C0E89801C0E998E82FF0E0E1
:104EA000EE0FFF1FE358FB4F1182108208951F92EF
:104EB0000F920FB60F9211242F933F934F935F934E
:104EC0006F937F938F939F93AF93BF93EF93FF93D2
:104ED00080917D0490917E04892B29F0E0917D04DE
:104EE000F0917E040995FF91EF91BF91AF919F9151
:104EF0008F917F916F915F914F913F912F910F9083
:104F00000FBE0F901F9018951F920F920FB60F9221
:104F100011242F933F934F935F936F937F938F93BE
:104F20009F93AF93BF93EF93FF9380917F049091F2
:104F30008004892B29F0E0917F04F0918004099589
:104F4000FF91EF91BF91AF919F918F917F916F9161
:104F50005F914F913F912F910F900FBE0F901F9037
:104F600018951F920F920FB60F9211242F933F9313
:104F70008F939F93AF93BF93809185049091860404
:104F8000A0918704B0918804309189040196A11DF5
:104F9000B11D232F2D5F2D3720F02D570196A11D18
:104FA000B11D209389048093850490938604A09377
:104FB0008704B09388048091810490918204A09129
:104FC0008304B09184040196A11DB11D80938104D6
:104FD00090938204A0938304B0938404BF91AF9113
:104FE0009F918F913F912F910F900FBE0F901F9027
:104FF00018958FB7F89420918504309186044091DC
:105000008704509188048FBFB901CA0108959B019C
:10501000AC017FB7F8948091810490918204A091B3
:105020008304B091840466B5A89B05C06F3F19F056
:105030000196A11DB11D7FBFBA2FA92F982F8827D8
:10504000860F911DA11DB11D62E0880F991FAA1F37
:10505000BB1F6A95D1F7BC012DC0FFB7F8948091B2
:10506000810490918204A0918304B0918404E6B5F8
:10507000A89B05C0EF3F19F00196A11DB11DFFBF10
:10508000BA2FA92F982F88278E0F911DA11DB11D12
:10509000E2E0880F991FAA1FBB1FEA95D1F7861B74
:1050A000970B885E9340C8F22150304040405040FA
:1050B00068517C4F211531054105510571F6089560
:1050C000789484B5826084BD84B5816084BD85B5E3
:1050D000826085BD85B5816085BDEEE6F0E08081AA
:1050E00081608083E1E8F0E01082808182608083CB
:1050F000808181608083E0E8F0E08081816080834E
:10510000E1EBF0E0808184608083E0EBF0E080817F
:1051100081608083EAE7F0E0808184608083808121
:1051200082608083808181608083808180688083C9
:105130001092C1000895982F8E3008F09E509770FD
:105140008091E5028295880F880F807C892B80935F
:105150007C0080917A00806480937A0080917A004C
:1051600086FDFCCF2091780040917900942F80E05B
:1051700030E0282B392BC9010895CF93DF93482FB6
:1051800050E0CA01805D984DFC013491445E584D59
:10519000FA018491882369F190E0880F991FFC013E
:1051A000E250F94DA591B491FC01E85FF84DC5912D
:1051B000D491662351F42FB7F8948C91932F909546
:1051C00089238C93888189230BC0623061F42FB7C7
:1051D000F8948C91932F909589238C938881832BBD
:1051E00088832FBF06C09FB7F8948C91832B8C9334
:1051F0009FBFDF91CF910895482F50E0CA018C5B8B
:10520000984DFC012491CA01805D984DFC01949158
:10521000445E584DFA013491332309F440C02223EF
:1052200051F1233071F0243028F42130A1F02230E4
:1052300011F514C02630B1F02730C1F02430D9F474
:1052400004C0809180008F7703C0809180008F7DA3
:105250008093800010C084B58F7702C084B58F7DA5
:1052600084BD09C08091B0008F7703C08091B000E9
:105270008F7D8093B000E32FF0E0EE0FFF1FE85F1B
:10528000F84DA591B4912FB7F894662321F48C9131
:105290009095892302C08C91892B8C932FBF089500
:1052A000682F70E0CB018C5B984DFC012491CB0101
:1052B000805D984DFC014491645E784DFB019491B2
:1052C000992319F420E030E03CC0222351F123302F
:1052D00071F0243028F42130A1F0223011F514C0EF
:1052E0002630B1F02730C1F02430D9F404C08091C9
:1052F00080008F7703C0809180008F7D8093800035
:1053000010C084B58F7702C084B58F7D84BD09C07D
:105310008091B0008F7703C08091B0008F7D809323
:10532000B000892F90E0880F991F8E5E984DFC0188
:10533000A591B4918C9120E030E0842311F021E01C
:1053400030E0C901089508951F920F920FB60F9291
:1053500011242F933F934F938F939F93EF93FF933A
:105360004091C6002091CA043091CB042F5F3F4F7B
:105370002F7330708091CC049091CD042817390799
:1053800059F0E091CA04F091CB04E657FB4F4083FB
:105390003093CB042093CA04FF91EF919F918F919A
:1053A0004F913F912F910F900FBE0F901F90189526
:1053B000E0911E05F0911F05E05CFF4F81919191F6
:1053C00020813181821B930B8F739070892B11F098
:1053D0000E94A32908951F920F920FB60F921124D5
:1053E0002F933F938F939F93EF93FF9320910E05FD
:1053F00030910F05809110059091110528173907FC
:1054000031F48091C1008F7D8093C10014C0E09180
:105410001005F0911105E253FB4F2081809110059A
:105420009091110501968F73907090931105809360
:1054300010052093C600FF91EF919F918F913F91AE
:105440002F910F900FBE0F901F901895DC011C96A6
:10545000ED91FC911D97E05CFF4F2191319180818E
:105460009181281B390B2F733070C9010895DC011D
:105470001C96ED91FC911D97E05CFF4F20813181DE
:10548000E054F040DF01AE5BBF4F8D919C911197CE
:105490002817390719F42FEF3FEF07C08D919C9122
:1054A000E80FF91F8081282F30E0C9010895DC0141
:1054B0001C96ED91FC911D97E05CFF4F208131819E
:1054C000E054F040DF01AE5BBF4F8D919C9111978E
:1054D0002817390719F42FEF3FEF10C08D919C91D9
:1054E0001197E80FF91F20818D919C9111970196DA
:1054F0008F73907011969C938E9330E0C90108953C
:10550000FC0186859785DC01A05CBF4FFC01EE5B4A
:10551000FF4F2D913C911197808191812817390778
:10552000C1F70895CF93DF93EC01EE85FF85E05C32
:10553000FF4F20813181E054F0402F5F3F4F2F73A8
:105540003070DF01AE5BBF4F8D919C911197281792
:105550003907D1F3E05CFF4F80819181E054F04046
:10556000E80FF91F6083EE85FF85E05CFF4F318314
:105570002083EE89FF89208181E090E00D8C02C0BC
:10558000880F991F0A94E2F7282B208381E090E08E
:10559000DF91CF910895109215051092140588EEB1
:1055A00093E0A0E0B0E08093160590931705A093D8
:1055B0001805B093190582EF92E09093130580933C
:1055C00012058AE894E090931F0580931E058EECE7
:1055D00094E0909321058093200585EC90E09093D2
:1055E00023058093220584EC90E090932505809319
:1055F000240580EC90E0909327058093260581ECAC
:1056000090E0909329058093280586EC90E0909394
:105610002B0580932A0584E080932C0583E08093FA
:105620002D0587E080932E0585E080932F0581E08E
:10563000809330050895CF93DF930E9460280E94E5
:10564000D122C8EDD9E20E94D0202097E1F30E9438
:10565000D829F9CFCF92DF92EF92FF920F931F9349
:10566000CF93DF937C016B018A01C0E0D0E00FC0D3
:10567000D6016D916D01D701ED91FC910190F08102
:10568000E02DC7010995C80FD91F01501040011521
:10569000110571F7CE01DF91CF911F910F91FF900E
:1056A000EF90DF90CF900895EF92FF920F931F93AA
:1056B0007B018C01611571058105910529F420E0BC
:1056C00030E040E050E00BC00E942A14A80197018E
:1056D0000E94132EAC01CB01DA019C01AD01B9018E
:1056E000CA011F910F91FF90EF900895EF92FF92E2
:1056F0000F931F937B018C01621773078407950733
:1057000064F4261B370B480B590BCA01B9010E94E0
:10571000542BE60EF71E081F191FB701C8011F9171
:105720000F91FF90EF900895009729F0BC0180E061
:1057300090E00E942F1408955058BB27AA270ED03E
:1057400070C161D130F066D120F031F49F3F11F487
:105750001EF456C10EF4E095E7FB4CC1E92F72D15F
:1057600080F3BA17620773078407950718F071F47E
:105770009EF58AC10EF4E0950B2EBA2FA02D0B01D9
:10578000B90190010C01CA01A0011124FF27591B86
:1057900099F0593F50F4503E68F11A16F040A22F8C
:1057A000232F342F4427585FF3CF469537952795FD
:1057B000A795F0405395C9F77EF41F16BA0B620BFC
:1057C000730B840BBAF09150A1F0FF0FBB1F661F43
:1057D000771F881FC2F70EC0BA0F621F731F841F86
:1057E00048F4879577956795B795F7959E3F08F0AC
:1057F000B3CF9395880F08F09927EE0F979587956B
:105800000895D4D008F481E008950CD00AC102D1E3
:1058100040F0F9D030F021F45F3F19F0EBC05111A6
:1058200034C1EEC00FD198F39923C9F35523B1F3D6
:10583000951B550BBB27AA2762177307840738F0FF
:105840009F5F5F4F220F331F441FAA1FA9F333D05E
:105850000E2E3AF0E0E830D091505040E695001C12
:10586000CAF729D0FE2F27D0660F771F881FBB1FCE
:10587000261737074807AB07B0E809F0BB0B802DA8
:10588000BF01FF2793585F4F2AF09E3F510568F0F4
:10589000B1C0FBC05F3FECF3983EDCF38695779593
:1058A0006795B795F7959F5FC9F7880F911D9695F6
:1058B000879597F90895E1E0660F771F881FBB1F52
:1058C000621773078407BA0720F0621B730B840BFF
:1058D000BA0BEE1F88F7E0950895BCD088F09F576B
:1058E00090F0B92F9927B751A0F0D1F0660F771F2C
:1058F000881F991F1AF0BA95C9F712C0B13081F00C
:10590000C3D0B1E00895C0C0672F782F8827B85F53
:1059100039F0B93FCCF3869577956795B395D9F76C
:105920003EF490958095709561957F4F8F4F9F4F76
:105930000895E89409C097FB3EF490958095709582
:1059400061957F4F8F4F9F4F9923A9F0F92F96E9CB
:10595000BB279395F695879577956795B795F11140
:10596000F8CFFAF4BB0F11F460FF1BC06F5F7F4FDD
:105970008F4F9F4F16C0882311F096E911C07723EF
:1059800021F09EE8872F762F05C0662371F096E8F8
:10599000862F70E060E02AF09A95660F771F881FC7
:1059A000DAF7880F9695879597F90895990F00086B
:1059B000550FAA0BE0E8FEEF16161706E807F907E1
:1059C000C0F012161306E407F50798F0621B730B7C
:1059D000840B950B39F40A2661F0232B242B252BFD
:1059E00021F408950A2609F4A140A6958FEF811DA0
:1059F000811D089597F99F6780E870E060E0089541
:105A00009FEF80EC089500240A94161617061806D6
:105A10000906089500240A941216130614060506B2
:105A20000895092E0394000C11F4882352F0BB0F43
:105A300040F4BF2B11F460FF04C06F5F7F4F8F4FA6
:105A40009F4F089557FD9058440F551F59F05F3FE1
:105A500071F04795880F97FB991F61F09F3F79F090
:105A600087950895121613061406551FF2CF469512
:105A7000F1DF08C0161617061806991FF1CF869594
:105A80007105610508940895E894BB276627772778
:105A9000CB0197F908958ADF08F48FEF08950BD0B2
:105AA000C0CFB1DF28F0B6DF18F0952309F0A2CF00
:105AB000A7CF1124EACFC6DFA0F3959FD1F3950FAE
:105AC00050E0551F629FF001729FBB27F00DB11D82
:105AD000639FAA27F00DB11DAA1F649F6627B00D12
